:020000040800F2
:10000000D009002099020008352C00080B290008AF
:10001000312C0008D10800083D360008000000001F
:10002000000000000000000000000000612E000839
:100030009D0A000800000000712C0008412F0008F4
:10004000B3020008B3020008B3020008512E0008F2
:10005000B3020008B3020008B3020008B3020008AC
:10006000B3020008B3020008B3020008B30200089C
:10007000B3020008B3020008B3020008B30200088C
:10008000B3020008B3020008B30200080000000039
:10009000000000000000000000000000B3020008A3
:1000A000B3020008B3020008B3020008B30200085C
:1000B000B3020008AD2F0008E92F0008B3020008C2
:1000C000B3020008B3020008B3020008B30200083C
:1000D000B3020008FD350008B3020008000000006C
:1000E000B3020008752C0008B302000800000000ED
:1000F000000000000000000000000000B302000843
:1001000000000000B3020008B3020008B3020008B8
:1001100000000000000000000000000000000000DF
:10012000B3020008B3020008B3020008B3020008DB
:10013000B302000800000000000000000000000002
:10014000000000000000000000000000B3020008F2
:10015000B3020008B3020008B3020008B3020008AB
:10016000B3020008B3020008000000000000000015
:10017000000000000000000000000000000000007F
:1001800000000000B30200080000000000000000B2
:10019000B3020008B302000800F002F800F06DF8A6
:1001A0000AA090E8000C82448344AAF10107DA45D2
:1001B00001D100F062F8AFF2090EBAE80F0013F0B7
:1001C000010F18BFFB1A43F001031847D04F00007E
:1001D000F04F00000A444FF0000C10F8013B13F000
:1001E000070408BF10F8014B1D1108BF10F8015B90
:1001F000641E05D010F8016B641E01F8016BF9D183
:1002000013F0080F1EBF10F8014BAD1C0C1B09D1D9
:100210006D1E58BF01F801CBFAD505E014F8016B4B
:1002200001F8016B6D1EF9D59142D6D370470000DD
:100230000023002400250026103A28BF78C1FBD8EF
:10024000520728BF30C148BF0B607047642900F0D7
:100250001781752900F01481782900F04D816329F8
:1002600000F0A182732900F0A682002070471FB51C
:1002700004F0B2FE1FBD10B510BD00F0CFFA11465C
:10028000FFF7F5FF03F02EFA00F0EDFA03B4FFF7E5
:10029000F2FF03BC03F0DBF9094880470948004737
:1002A000FEE7FEE7FEE7FEE7FEE7FEE7FEE7FEE726
:1002B000FEE7FEE704480549054A064B7047000083
:1002C000492F000899010008D0030020D009002020
:1002D000D0050020D0050020704753EA020C00F042
:1002E00069802DE9F04B4FF00006002B1FBFB3FAD9
:1002F00083F503FA05F424FA05F65E4012BF1643AF
:10030000B2FA82F502FA05F4C5F120051EBF22FA01
:1003100005FC44EA0C04203556EA044C4FEA144428
:1003200018BF641C4FF000084FF00009904271EBB9
:10033000030C39D3002919BFB1FA81F701FA07F686
:10034000B0FA80F700FA07F6C7F120071EBF20FABF
:1003500007FC46EA0C062037B6FBF4FCA7EB0507C2
:10036000103F07F01F0BCBF120060CFA0BFB2CFA09
:1003700006F644BFB3460026202FA4BF5E464FF0CA
:10038000000B5BEA060C08BF4FF0010B19EB0B09E1
:10039000ABFB027C48EB0608C01B06FB02CC0BFB48
:1003A00003CC71EB0C01C1E70B46024641464846BF
:1003B000BDE8F08B13B54FF000004FF00001AFF334
:1003C0000080BDE81C4070470FB4044910B503AA73
:1003D000029800F0F5F910BC5DF814FB4C00002009
:1003E00070B5044685690068C10601D5302600E075
:1003F0002026C00707D070BDD4E9012130469047C0
:10040000206A401C20626D1EF6D570BD70B5044692
:1004100085690078C00707D170BDD4E9012120208B
:100420009047206A401C20626D1EF6D570BD70B5E5
:100430000C460546012A05D02878800600D5EA69D1
:10044000002302E0012305E05B1C934202D2E05C42
:100450000028F9D1A869E618C01AA861286A1844CA
:1004600028622846FFF7BCFF04E0D5E9012114F813
:10047000010B9047B442F8D32846FFF7C7FF70BD81
:100480002DE9F0410646002410687529314616A56D
:1004900010D0AFF30080002802DA404213A507E035
:1004A00031688A0701D512A502E0490704D511A5D4
:1004B000012401E0AFF3008000210A2206F12407A5
:1004C00009E0B0FBF2FCB0FBF2F302FB1C003030A1
:1004D00078541846491C0028F3D123462A46304652
:1004E000BDE8F04100F0FCB8000000002D00000065
:1004F0002B0000002000000070B504460D46214688
:100500001068AFF300802188090502D50F4A7A44AC
:1005100002E00E4A7A440E32002104F1240305E081
:1005200000F00F060009965D5E54491C0028F7D1C3
:1005300020780023000704D5702D02D009B10223D2
:1005400011322046BDE8704000F0CAB8E84A000009
:100550002DE9F05F894604464FF0000ADFF874B1D8
:10056000FB44C0F820A02046E1688847002874D0EA
:10057000252806D0D4E901219047206A401C20623A
:10058000F1E700265F462046E168884720280546B7
:1005900007DB312D05D2781910F8200C08B106437D
:1005A000F1E7B00701D526F00406C4F81CA0002727
:1005B000C4F818A02A2D09D0284603F041F838B312
:1005C00004EB8708303DC8F8185019E059F8041BAF
:1005D000204604EB87029161E1688847012F0546B8
:1005E00018D1E069002820DA26F020061DE0D8F8AE
:1005F000180000EB800005EB40003038C8F8180008
:100600002046E1688847054603F01AF80028EED135
:10061000012F0AD02E2D08D12046E16888477F1C83
:100620000546022F46F02006C4DBA069002803DA45
:10063000404246F00106A061F00701D026F0100606
:100640006C2D0BD0682D09D04C2D39D06A2D35D0AA
:10065000742D35D07A2D33D016E038E0E1682F467E
:1006600020468847B842054609D16C2F26D04FF462
:100670008060E168064320468847054604E06C2F09
:100680001AD04FF4807006430DB3A5F1410019282C
:1006900002D8203546F400664A46294620462660A0
:1006A0004E46FFF7D3FD80B101280BD0F61D26F092
:1006B000070000F1080956E74020E4E78020D8E76A
:1006C0000020D6E706F104094DE7284652E7206AE4
:1006D000BDE8F09FBE4A0000704770477047704702
:1006E0002DE9F0470D4699469246044600F124084C
:1006F0000168880604D5E06921F01001216000E05E
:100700000120A84201DD471B00E00027A1697A19FA
:1007100002EB0900081AA0612078C00602D4204626
:10072000FFF75EFE002608E0D4E901211AF8060072
:100730009047206A401C761C20624E45F4DB2078EE
:10074000C0060AD52046FFF74BFE06E0D4E901219A
:1007500030209047206A401C2062381EA7F1010714
:10076000F4DC07E0D4E9012118F805009047206A7D
:10077000401C2062281EA5F10105F3DC2046FFF78E
:1007800045FE2078000602D50220BDE8F087012052
:10079000FBE710B5436913B1AFF3008001E0FFF749
:1007A00046FE012010BD127800F124010A700022DB
:1007B0004A700122EDE711684FF0FF32E9E70000CF
:1007C000074B70B50D467B4400F011F804462846EF
:1007D00000F020F810B14FF0FF3070BD204670BD22
:1007E000FF2E000001694A1C02610878704700B5BD
:1007F0008FB0CDE901310021059105497944CDE95A
:10080000031011466846FFF7A3FE0FB000BD0000BD
:10081000E5FFFFFF007B00F080007047754600F0A9
:100820002BF8AE4605006946534620F00700854682
:1008300018B020B5FFF73EFDBDE820404FF00006A0
:100840004FF000074FF000084FF0000B21F00701B8
:10085000AC46ACE8C009ACE8C009ACE8C009ACE8FB
:10086000C0098D46704710B50446AFF3008020469E
:10087000BDE81040FFF70ABD004870476C03002038
:1008800000B587B000BF002001900F48006840F01D
:1008900002000D4908600846006800F0020001905F
:1008A00000BF00BF88150290012003900490032030
:1008B000059002A9054800F007F90122110203483A
:1008C00000F0F4F907B000BD3038024000040240E7
:1008D00000BFFEE7024A1060024A11607047000044
:1008E000340000203800002010B5002414480068AF
:1008F00020F440201249086008460068086004E0BF
:10090000601CC4B2012002F0BBFE0E48006808B1B2
:10091000642CF5DB642C01DB012010BD002404E015
:10092000601CC4B2012002F0ABFE0648006808B9A2
:10093000642CF5DB642C01DB0120EEE70020ECE702
:10094000000402402482404200B587B000BF00206E
:1009500001900F48006840F002000D490860084609
:10096000006800F00200019000BF00BF481502902F
:100970000120039004900320059002A9054800F08F
:10098000A3F800F06BF8FFF7AFFF07B000BD000061
:10099000303802400004024010B5002404E0601C1E
:1009A000C4B2012002F06CFE0D48006808B1642C4E
:1009B000F5DB002404E0601CC4B2012002F060FEFC
:1009C0000748006808B9642CF5DB282002F058FEBF
:1009D0000348006808B1012010BD0020FCE70000BA
:1009E0002482404270B50024002506E06006040E13
:1009F000FFF7D2FF0443681CC5B2082DF6DB204682
:100A000070BD7CB505460E4600F028F8FFF76CFF78
:100A1000F8B9002405E0FFF7E5FF0DF80400601CBD
:100A2000C4B2052CF7DB9DF800009DF801100844C6
:100A30009DF8021008449DF8031008449DF8041026
:100A4000884208D19DF8000030709DF8020028709F
:100A500001E001207CBD0020FCE7000010B50C483F
:100A6000006820F440200A4908600846006840F405
:100A700080200860002007490860142002F0F4FD7F
:100A800001200549C1F8A4021E2002F0F9FD10BDA5
:100A900000040240A4824042008040427047014668
:100AA00091F83500022803D0802048650120704766
:100AB000052081F835000868006820F001000A6808
:100AC00010600020F3E70000F8B503460A46002551
:100AD000002400200021CDE0012606FA01F5166869
:100AE00006EA0504AC4273D15668022E02D056685D
:100AF000122E13D1CF0803F1200656F827004E0717
:100B0000F70E0F26BE40B0434F07FF0E1669BE40DA
:100B10003043CF0803F1200646F8270018684F003D
:100B20000326BE40B043167906F003064F00BE40D0
:100B3000304318605668012E08D05668022E05D042
:100B40005668112E02D05668122E13D198684F00A5
:100B50000326BE40B0434F00D668BE403043986085
:100B6000586801268E40B0431679C6F300168E40B1
:100B700030435860D8684F000326BE40B0434F0052
:100B80009668BE403043D860566806F08056B6F18D
:100B9000805F6ED100BF00260096384E366846F45E
:100BA0008046364F3E603E46366806F480460096E4
:100BB00000BF00BF324E8F0856F827008E07370F50
:100BC0000F26BE40B0432F4EB34202D1002615E09F
:100BD0004FE02D4EB34201D101260FE02B4EB34220
:100BE00001D102260AE02A4EB34201D1032605E0D4
:100BF000284EB34201D1042600E007268F073F0F9D
:100C0000BE4030431E4E8F0846F82700224E306803
:100C1000A043566806F48036B6F5803F00D12043E5
:100C20001D4E3060361D3068A043566806F400360D
:100C3000B6F5003F00D12043174E361D3060361DFB
:100C40003068A043566806F48016B6F5801F00D1C0
:100C50002043114E08363060361D3068A043566878
:100C600006F40016B6F5001F00D120430A4E0C36DC
:100C70003060491C1029FFF42FAFF8BD4438024002
:100C80000838014000000240000402400008024011
:100C9000000C024000100240003C01400246136973
:100CA0000B400BB1012000E0002070470AB18161C8
:100CB00001E00B0483617047014800687047000041
:100CC000540000200348006803490978084401499A
:100CD00008607047540000205C00002010B50D48EB
:100CE000006840F400700B4908600846006840F452
:100CF000806008600846006840F480700860032047
:100D000000F07CF80F2000F007F800F02BF800202E
:100D100010BD0000003C024070B504460E4800784B
:100D20004FF47A71B1FBF0F00C490968B1FBF0F5B2
:100D3000284601F024F908B1012070BD102C07D21B
:100D400000222146501E00F01BF80548046001E017
:100D50000120F2E70020F0E75C00002040000020C6
:100D600058000020704700BF00F01F020121914091
:100D70004209920002F1E022C2F8001100BF704760
:100D80002DE9F05F80460D461646002701F054FF1E
:100D9000074639462A46334601F00700C0F1070AE4
:100DA000BAF1040F02D94FF0040A01E0C0F1070ABA
:100DB000D14600F1040ABAF1070F02D24FF0000A3F
:100DC00001E0A0F1030AD4464FF0010A0AFA09FA39
:100DD000AAF1010A0AEA020A0AFA0CFA4FF0010B18
:100DE0000BFA0CFBABF1010B0BEA030B4AEA0B0409
:100DF0002146404601F028FFBDE8F09F00BF00F00B
:100E00000702064B19684FF6FF031940044B0B43CA
:100E100043EA0221014B196000BF70470CED00E06E
:100E20000000FA05012001490862704700000E42E7
:100E3000F8B5044600250026207800F0010020B90E
:100E4000207800F00400042831D100206049886631
:100E5000FFF732FF054606E0FFF72EFF401B022892
:100E600001D90320F8BD5B480068C0F3C0600028CA
:100E7000F2D1D4E9011041EA8011207B41EA0070EF
:100E8000544984310860012051498866FFF714FFF6
:100E9000054606E0FFF710FF401B022801D903209A
:100EA000E0E74C480068C0F3C0600028F2D020782A
:100EB00000F0020002287DD100BF002000904548CC
:100EC0004030006840F08050424940310860084698
:100ED000006800F08050009000BF00BF3E480068EE
:100EE00040F480703C490860FFF7E6FE054606E0E6
:100EF000FFF7E2FE401B022801D90320B2E7364883
:100F0000006800F480700028F2D032487030006829
:100F100000F440764EB3208A00F44070B04224D0F2
:100F20002C487030006820F4407601202B4908607E
:100F300000200860274870300660006800F001005B
:100F400098B1FFF7B9FE054608E0FFF7B5FE401B74
:100F500041F28831884201D9032083E71D4870306F
:100F60000068C0F340000028EFD000BF208A00F4E2
:100F70004070B0F5407F0CD116480830006820F46E
:100F8000F810174A216911400843124908310860D6
:100F900007E010480830006820F4F8100D490831C7
:100FA00008600C4870300068218AC1F30B010843C7
:100FB000084900E002E07031086000BF207800F0CE
:100FC0000800082802D1207D06490860002049E772
:100FD000000047420038024000700040400E474287
:100FE000FFFCFF0FE011474270B504460D460CB9F7
:100FF000012070BD5848006800F00F00A84209D2D7
:1010000055490D700846006800F00F00A84201D055
:101010000120EEE7207800F0020002281DD12078A0
:1010200000F00400042805D14C48006840F4E0506A
:101030004A490860207800F00800082805D1474890
:10104000006840F46040454908604448006820F06A
:10105000F000A168084341490860207800F00100D1
:10106000A8B36068012807D13C4808380068C0F37D
:101070004040B8B90120BCE76068022802D060682F
:10108000032807D1354808380068C0F3406048B9E4
:101090000120AEE7314808380068C0F3400008B9C5
:1010A0000120A6E72D48006820F00300616808438E
:1010B0002A490860FFF700FE064609E0FFF7FCFD3D
:1010C000801B41F28831884202D9032091E707E072
:1010D0002248006800F00C006168B0EB810FEDD190
:1010E0001D48006800F00F00A84209D91A490D7088
:1010F0000846006800F00F00A84201D0012078E700
:10110000207800F00400042807D11448006820F477
:10111000E050E168084311490860207800F00800B9
:10112000082808D10D48006820F46040216940EA91
:10113000C1000A49086000F03DF808490968C1F398
:101140000311074A515CC840064908600F20FFF7A9
:10115000E3FD00204DE70000003C0240083802405B
:10116000E24F00084000002001480068704700007E
:101170004000002000B5FFF7F7FF04490968C1F3FC
:101180008221034A515CC84000BD0000083802407B
:10119000F24F000800B5FFF7E7FF04490968C1F303
:1011A0004231034A515CC84000BD0000083802408B
:1011B000F24F00082DE9F047002400250026A14643
:1011C0002548006800F00C0020B1042805D008284C
:1011D0003AD105E0DFF8849039E0DFF8849036E01A
:1011E0001D48001F006800F03F041B48001F0068F6
:1011F00000F4800078B11A481749091F0968C1F343
:101200008811A0FB01700146224600233846FFF7F3
:1012100064F805460EE011480F49091F0968C1F33B
:101220008811A0FB01700146224600233846FFF7D3
:1012300054F805460848001F0068C0F30140401CF0
:101240004600B5FBF6F902E0DFF8109000BF00BFE2
:101250004846BDE8F0870000083802400024F4004A
:1012600000127A00F8B504460CB90120F8BD2078C8
:1012700000F00100002874D0F948006800F00C006C
:1012800004280DD0F648006800F00C00082813D19F
:10129000F348001F006800F48000B0F5800F0BD108
:1012A000EF4808380068C0F34040002859D0606813
:1012B000002856D10120D9E700BF6068B0F5803F13
:1012C00008D1E7480838006840F48030E44908391C
:1012D00008601EE06068B0F5A02F0DD1E048083826
:1012E000006840F48020DE4908390860084600683C
:1012F00040F4803008600CE0D9480838006820F4D9
:101300008030D749083908600846006820F48020FA
:10131000086000BF606890B1FFF7CEFC054606E0AC
:10132000FFF7CAFC401B642801D903209EE7CC4884
:1013300008380068C0F340400028F1D011E0FFF702
:10134000BBFC054606E0FFF7B7FC401B642801D94B
:1013500003208BE7C24808380068C0F340400028EB
:10136000F1D1207800F0020002285FD1BC4800686B
:1013700000F00C0058B1BA48006800F00C000828D2
:101380001CD1B748001F006800F48000B0B9B44811
:1013900008380068C0F3400020B1E068012801D09F
:1013A000012063E7AE480838006820F0F8002169A2
:1013B00040EAC100AA490839086037E0E06800B394
:1013C0000120A8490860FFF777FC054606E0FFF713
:1013D00073FC401B022801D9032047E7A0480838C6
:1013E0000068C0F340000028F1D09D48083800682C
:1013F00020F0F800216940EAC100994908390860E5
:1014000014E0002097490860FFF756FC054606E007
:10141000FFF752FC401B022801D9032026E7904821
:1014200008380068C0F340000028F1D1207800F0AF
:10143000080008282CD16069A8B101208A490860F9
:10144000FFF73AFC054606E0FFF736FC401B022892
:1014500001D903200AE782486C300068C0F34000DD
:101460000028F1D014E000207F490860FFF724FC39
:10147000054606E0FFF720FC401B022801D90320A7
:10148000F4E677486C300068C0F340000028F1D1E2
:10149000207800F00400042870D10026704838300D
:1014A000006800F0805090B900BF002000906C48A8
:1014B0003830006840F0805069493831086008468B
:1014C000006800F08050009000BF00BF0126674810
:1014D000006800F48070B0B96448006840F480701F
:1014E00062490860FFF7E8FB054606E0FFF7E4FB0A
:1014F000401B022801D90320B8E65C48006800F4CC
:1015000080700028F2D000BFA068012808D154489C
:101510006830006840F001005149683108601DE002
:10152000A06805280DD14E486830006840F00400DE
:101530004B49683108600846006840F001000860C7
:101540000CE047486830006820F0010044496831E9
:1015500008600846006820F00400086000BFA0682A
:10156000A8B1FFF7A9FB054609E0FFF7A5FB401B63
:1015700041F28831884202D9032077E626E03848D4
:1015800068300068C0F340000028EED013E0FFF799
:1015900093FB054608E0FFF78FFB401B41F28831C3
:1015A000884201D9032061E62D4868300068C0F305
:1015B00040000028EFD1012E07D1294838300068BB
:1015C00020F0805026493831086000BFA069B8B3C8
:1015D0002348006800F00C0008285ED0A0690228AB
:1015E00046D100201F490866FFF766FB054606E066
:1015F000FFF762FB401B022801D9032036E618489A
:1016000008380068C0F340600028F1D1D4E9070130
:101610000843616A40EA81110122A06AC2EB5000CE
:1016200041EA00412C20005D41EA00600C49091F9D
:10163000086001200B490866FFF73EFB054607E0FE
:101640002DE0FFF739FB401B022801D903200DE6EE
:10165000034808380068C0F340600028F1D01EE05D
:101660000838024000004742800E474200700040A8
:1016700000200C490866FFF71FFB054606E0FFF750
:101680001BFB401B022801D90320EFE50648006838
:10169000C0F340600028F2D101E00120E6E500201F
:1016A000E4E500000000474200380240704702466F
:1016B0000023106800F1500303EB810318687047A2
:1016C00010B50023046804F1500303EB81031A6092
:1016D00010BD000018B5034600BF187F012801D1D6
:1016E000022018BD0120187700BF0220587700BFE4
:1016F000CA201C68606253201C68606200BF1868C2
:10170000806800F4806000B34148006840094FF4ED
:101710007A74B0FBF4F06043009000BF0098441E60
:10172000009460B900BFFF201C68606200BF032006
:10173000587700BF0020187700BF0320D1E7186852
:10174000C068C0F380000028E8D11868806820F4E1
:1017500080601C68A0602E48006840094FF47A74CD
:10176000B0FBF4F06043009000BF0098441E00946A
:1017700060B900BFFF201C68606200BF032058777B
:1017800000BF0020187700BF0320AAE71868C068D0
:10179000C0F380000028E8D01868416118688068AC
:1017A00020F007001C68A0601868806810431C685F
:1017B000A0601848006840F48000164C206015486E
:1017C0000830006840F48000124C0834206018682B
:1017D000C06800F0800060F490601C68E0601868E9
:1017E000806840F480401C68A0601868806840F4FD
:1017F00080601C68A06000BFFF201C68606200BFA2
:101800000120587700BF0020187700BF00BF68E7AD
:1018100040000020003C01407047000010B5044625
:101820002068C068C0F3802078B12068806800F428
:10183000804050B12046FFF7EFFF2068C06800F0FD
:10184000800060F490602168C8604FF48000024915
:1018500008600120607710BD143C014010B50446BB
:1018600001A0FEF7B1FD10BD414C41524D20412178
:101870000D0A000010B504462068C068C0F30020BF
:1018800078B12068806800F4805050B12046FFF79E
:10189000E5FF2068C06800F0800060F4C070216837
:1018A000C8602068C068C0F3402078B120688068B4
:1018B00000F4005050B12046FFF7F8FE2068C068E1
:1018C00000F0800060F420702168C8604FF40030A0
:1018D000024908600120607710BD0000143C0140FF
:1018E00070B505460B4616460024286840680E4928
:1018F00000EA0104200CD870C4F30420587004F0EE
:101900003F009870C4F3423018705EB9D87801F087
:10191000B9F9D870587801F0B5F95870987801F095
:10192000B1F99870002070BD3FFFFF0070B504460C
:101930000B46164600252068806A586020680069BA
:10194000C0F30E009860206800680F4900EA0105A6
:10195000C5F305401870C5F30620587005F07F00E8
:10196000987005F48000000CD8705EB9187801F00A
:1019700089F91870587801F085F95870987801F055
:1019800081F99870002070BD7F7F7F0010B50446FC
:101990000CB9012010BD607F20B9002020772046BF
:1019A00000F060F80220607700BFCA20216848621A
:1019B00053202168486200BF204601F07BF940B106
:1019C00000BFFF202168486200BF0420607701202B
:1019D000E0E7206880682249084021688860216922
:1019E0006068084361690843216889680843216881
:1019F00088602168E068086120680169208941EAFF
:101A00000040216808612068C06820F080002168DB
:101A1000C8602068806800F0200060B9204600F0AF
:101A20007DFA40B100BFFF202168486200BF04205A
:101A300060770120AEE72068006C20F480202168E8
:101A400008642068006CA16908432168086400BF2D
:101A5000FF202168486200BF01206077002099E7DD
:101A6000BFFF8FFF10B594B0044600BF0020019067
:101A70001148006840F080500F490860084600682F
:101A800000F08050019000BF00BFFFF7CBF90420A9
:101A9000089000200E9001200A9008A8FFF7E2FBB2
:101AA00002200290C001069002A8FFF7C1F90120B0
:101AB0000249086014B010BD403802403C0E474255
:101AC0002DE9F84103460C461546002600278348B9
:101AD000006840094FF47A71B0FBF1F04843009080
:101AE00000BF187F012802D10220BDE8F881012043
:101AF000187700BF0220587755BB1868806800F03F
:101B0000400000B102E00020E07000BFE06900B9D1
:101B100000E000BF207801F0C0F84FEA004860788C
:101B200001F0BBF848EA0028A07801F0B6F848EACE
:101B30000008E07848EA004894F8200001F0ADF889
:101B400048EA0060E1690843616940EA01062DE066
:101B50001868806800F0400020B1207801F092F809
:101B6000064602E00020E07000BFE06928B994F862
:101B7000200001F087F8064605E094F8200001F007
:101B800081F8064600BF20780004617840EA012011
:101B9000A1780843E17840EA014094F8201040EA37
:101BA0000160E1690843616940EA0106A169606872
:101BB00040EA010700BFCA2019684862532019682B
:101BC000486200BF606AB0F5807F36D118688068CF
:101BD00020F48070196888601868C06800F0800080
:101BE00060F4C0701968C86000BF0098411E009181
:101BF00060B900BFFF201968486200BF0320587712
:101C000000BF0020187700BF03206EE71868C06887
:101C100000F001000028E8D01868C6611868476421
:101C20001868806840F48070196888601868806857
:101C300040F480501968886035E01868806820F4A6
:101C40000070196888601868C06800F0800060F44F
:101C500020701968C86000BF0098411E009160B9EB
:101C600000BFFF201968486200BF0320587700BFFB
:101C70000020187700BF032037E71868C068C0F35A
:101C800040000028E8D01868066218688764186861
:101C9000806840F40070196888601868806840F4B3
:101CA0000050196888600E48006840F400300C4904
:101CB00008600B480830006840F4003008490831DB
:101CC000086000BFFF201968486200BF01205877F4
:101CD00000BF0020187700BF00BF06E740000020CB
:101CE000003C01402DE9F04104460D461646002710
:101CF00000BF207F012802D10220BDE8F081012031
:101D0000207700BF022060774EB9687800F010009D
:101D1000102804D1687800F0EF000A30687086B9A6
:101D2000E87800F0BAFF0304687800F0B6FF43EAF1
:101D30000023A87800F0B1FF0343287843EA403736
:101D400009E0E8780004697840EA0120A9780843AE
:101D5000297840EA413700BFCA20216848625320F1
:101D60002168486200BF204600F0A4FF60B100BFB8
:101D7000FF202168486200BF0420607700BF002078
:101D8000207700BF0120B8E7164838402168486036
:101D90002068C06820F080002168C86020688068E2
:101DA00000F0200080B9204600F0B8F860B100BF14
:101DB000FF202168486200BF0420607700BF002038
:101DC000207700BF012098E700BFFF20216848620C
:101DD00000BF0120607700BF0020207700BF00BF58
:101DE0008BE700003FFFFF002DE9F04104460D4660
:101DF0001646002700BF207F012802D10220BDE83F
:101E0000F0810120207700BF02206077CEB92068E2
:101E1000806800F0400000B102E00020E87000BFE0
:101E2000287800F03AFF0304687800F036FF43EAB0
:101E30000023A87800F031FF0343E87843EA004725
:101E400016E02068806800F0400020B1287800F09B
:101E500019FF074602E00020E87000BF2878000460
:101E6000697840EA0120A9780843E97840EA014707
:101E700000BFCA202168486253202168486200BF21
:101E8000204600F017FF60B100BFFF2021684862C4
:101E900000BF0420607700BF0020207700BF012032
:101EA000ADE71D483840216808602068806820F44C
:101EB000802021688860D5E903010843216889688A
:101EC0000843216888602068C06820F0800021688D
:101ED000C8602068806800F0200080B9204600F0CB
:101EE0001DF860B100BFFF202168486200BF0420D8
:101EF000607700BF0020207700BF01207FE700BF90
:101F0000FF202168486200BF0120607700BF0020E9
:101F1000207700BF00BF72E77F7F7F0070B5044667
:101F200000252068C06820F0A0002168C860FEF786
:101F3000C3FE054607E0FEF7BFFE401BB0F57A7F03
:101F400001D9032070BD2068C06800F0200000287F
:101F5000F1D00020F6E7042808D14FF0E02109690C
:101F600041F004014FF0E022116107E04FF0E02161
:101F7000096921F004014FF0E0221161704770B54A
:101F800004462546681EB0F1807F01D301200FE092
:101F9000681E4FF0E02148610F214FF0FF3000F044
:101FA00053FE00204FF0E0218861072008610020E7
:101FB00070BD7047704710B504460CB9012010BDC4
:101FC00094F8390028B9002084F83800204600F041
:101FD0000DF8022084F83900211D206801F026F850
:101FE000012084F839000020E9E7000038B50446F4
:101FF0000E492068884217D100BF002000900C488D
:10200000006840F002000A4908600846006800F0D5
:102010000200009000BF00BF032201211D20FEF737
:10202000AFFE1D20FEF79FFE38BD000000040040FB
:102030004038024001460868C06840F001000A6864
:10204000D0600868006840F001000A681060002055
:102050007047704710B5044620680069C0F340001F
:10206000D8B12068C068C0F34000B0B16FF0020082
:1020700021680861012020762068806900F0030053
:1020800018B12046FFF7E5FF05E0204600F0ADF867
:10209000204600F0ABF80020207620680069C0F3ED
:1020A0008000D8B12068C068C0F38000B0B16FF084
:1020B000040021680861022020762068806900F40D
:1020C000407018B12046FFF7C4FF05E0204600F03D
:1020D0008CF8204600F08AF80020207620680069FD
:1020E000C0F3C000D8B12068C068C0F3C000B0B170
:1020F0006FF0080021680861042020762068C0691C
:1021000000F0030018B12046FFF7A3FF05E02046CA
:1021100000F06BF8204600F069F800202076206877
:102120000069C0F30010D8B12068C068C0F3001087
:10213000B0B16FF010002168086108202076206897
:10214000C06900F4407018B12046FFF782FF05E037
:10215000204600F04AF8204600F048F8002020769B
:102160002068006900F0010058B12068C06800F0E4
:10217000010030B16FF0010021680861204600F0D5
:1021800037F820680069C0F3C01058B12068C068F3
:10219000C0F3C01030B16FF08000216808612046A4
:1021A000FFF707FF20680069C0F3801058B120686E
:1021B000C068C0F3801030B16FF040002168086142
:1021C000204600F0F1F920680069C0F3401058B1D2
:1021D0002068C068C0F3401030B16FF02000216863
:1021E00008612046FFF7E6FE10BD7047704700000B
:1021F00038B50446C44884427DD1C44800680228EA
:10220000FAD1C3480088401CC149088008460088AC
:10221000B0F5FA7F09D1BF48837842780178BEA033
:10222000FEF7D2F80020BA4908800022B949C24816
:10223000FFF77CFB0022C149BF48FFF751FBC048B4
:10224000007808284FD2DFE800F0040E1A1E283468
:102250003842B04800780A2190FBF1F0B949085C97
:10226000B94908703FE0AB4800780A2190FBF1F2D1
:1022700001FB1200B349085CB349087033E0022047
:10228000B14908702FE0A34840780A2190FBF1F093
:10229000AC49085CAC49087025E09E4840780A21AA
:1022A00090FBF1F201FB1200A649085CA6490870F8
:1022B00019E00220A449087015E0964880780A21A8
:1022C00090FBF1F09F49085C9F4908700BE0914832
:1022D00080780A2190FBF1F201FB12009949085C19
:1022E0009949087000BF00BF95480178964800786A
:1022F00000F07CFC00E00CE000F0F8FB9048007877
:10230000401C8F49087008460078082801D1002039
:1023100008707D4884427DD17C4800680128FAD14C
:102320007B480088401C7A49088008460088B0F540
:10233000FA7F0ED18548006800908548036885487B
:1023400002788548017885A0FEF73EF800207049A4
:1023500008808E480088401C8C4908800846008808
:10236000B0F5FA7F05D1002008807A497A48FEF757
:1023700048FB87480078022806D003280ED006289C
:1023800018D007282CD11FE0734800780A2190FB51
:10239000F1F06C49085C7F49087021E06E480078D4
:1023A0000A2190FBF1F201FB12006649085C7949B1
:1023B000087015E0674800780A2190FBF1F0614948
:1023C000085C744908700BE0624800780A2190FBB1
:1023D000F1F201FB12005B49085C6E49087000BF16
:1023E00000BF6B4801786B48007800F0FFFB00F0FD
:1023F0007DFB67480078401C6549087008460078F6
:10240000042801D10620087061480078082804D10A
:10241000022000E01FE05E4908705F480088401C11
:102420005D49088008460088FA2814D14A48007897
:102430001E280DDA47480078502809DA0020088065
:102440005648006808B9012000E0002053490860A0
:102450000020514908802D480068E0BB50480078B2
:10246000022806D003280ED0062818D007282CD121
:102470001FE0374800680A2190FBF1F03149085C01
:102480004849087021E0324800680A2190FBF1F2C7
:1024900001FB12002B49085C4249087015E02B48EB
:1024A00000680A2190FBF1F02649085C3D4908705C
:1024B0000BE0264800680A2190FBF1F201FB1200B4
:1024C0002049085C3749087000BF00BF34480178D4
:1024D0003448007800E015E000F088FB00F006FBCF
:1024E0002F480078401C2E490870084600780428C0
:1024F00001D1062008702A480078082802D102205D
:102500002749087038BD0000CC01002018000020C9
:102510003C000020B8010020B5B1C7B0B5C4CAB1B5
:10252000BCE4CAC7A3BA2564B5E32564B7D625645D
:10253000C3EB0D0A0000000008020020120000207A
:102540002E000020000000202F0000203800002076
:10255000340000202D0000202C000020B5B1C7B0B1
:10256000CEC2B6C8CEAAA3BA256420CAAAB6C8CE1F
:10257000AA256428B5B1C7B0D4A4BEAFD6B5A3BA56
:102580002564202564290D0A000000002A0000208F
:102590002600002027000020280000208002414261
:1025A00024000020250000207047704701460022CB
:1025B000002391F8392091F83A3042EA030070473D
:1025C0002DE9F0470446206805682068C668206841
:1025D00047694FF00008C14605F00F08B8F1000F39
:1025E0000AD105F0200038B106F0200020B12046C5
:1025F00000F0CEFDBDE8F087B8F1000F6DD007F018
:10260000010018B906F49070002866D005F00100AA
:1026100030B106F4807018B1E06B40F00100E06367
:1026200005F0040030B107F0010018B1E06B40F094
:102630000200E06305F0020030B107F0010018B1BC
:10264000E06B40F00400E06305F0080030B107F0F3
:10265000010018B1E06B40F00800E063E06B68B384
:1026600005F0200028B106F0200010B1204600F04F
:102670008FFD20684069C0F38019E06B00F008000E
:1026800010B9B9F1000F22D0204600F061FD20689A
:10269000406900F04000B0B12068406920F040007F
:1026A00021684861606B50B11748616B0865606BC9
:1026B000FEF7F5F910B1606B016D88470CE020461C
:1026C000FFF773FF08E02046FFF76FFF04E02046A6
:1026D000FFF76BFF0020E0638CE705F0800030B16E
:1026E00006F0800018B1204600F054FF82E705F0A4
:1026F000400030B106F0400018B1204600F038FD2F
:1027000078E700BF76E700003D31000810B50446C9
:102710000CB9012010BDA06900B100E000BF94F821
:10272000390028B9002084F83800204600F028F845
:10273000242084F839002068C06820F40050216803
:10274000C860204600F072FD2068006920F49040C7
:10275000216808612068406920F02A0021684861EA
:102760002068C06840F400502168C8600020E06321
:10277000202084F8390084F83A000020CAE70000DD
:1027800010B586B004462249206888423ED100BF79
:10279000002000901F48006840F001001D490860BB
:1027A0000846006800F00100009000BF00BF00BFB5
:1027B0000020009017481430006840F010001549C0
:1027C000143108600846006800F01000009000BF57
:1027D00000BF4815019002200290012003900220C2
:1027E00004900720059001A90B48FEF76DF94FF4FE
:1027F0008060019001A90848FEF766F92520FEF7E0
:10280000B2FA032211462520FEF7BAFA06B010BD2F
:1028100000100140303802400000024010B503466D
:1028200093F83A00202829D101B10AB9012010BD3E
:1028300000BF93F83800012801D10220F7E70120FA
:1028400083F8380000BF99629A85DA850020D86342
:10285000222083F83A0000BF002083F8380000BF30
:102860001868406940F001001C6860611868C06821
:1028700040F490701C68E0600020D8E70220D6E7A2
:102880001D4A0168914236D11C49098801F4004172
:1028900089BB1A49098801F4804171B11849097846
:1028A0000A2903D00021154A118024E01349098820
:1028B00041F40041114A11801DE0114909780D29A8
:1028C00006D10E49098841F480410C4A118012E07A
:1028D0000B490978094A1288C2F30D02094B995431
:1028E00006490988491C054A118011460988C729EB
:1028F00001DD0021118070470010014050000020D0
:102900005200002028020020704700BFFEE70000B0
:1029100000B587B000BF002001902648006840F055
:102920000100244908600846006800F00100019099
:1029300000BF00BF00BF002001900846006840F0C3
:10294000040008600846006800F00400019000BF21
:1029500000BF00BF002001900846006840F008005A
:1029600008600846006800F00800019000BF00BF42
:102970000120029000200390022004900320059083
:1029800002A90D48FEF7A0F84FF440700290002015
:102990000390012004900320059002A90748FEF748
:1029A00093F80420029002A90548FEF78DF807B0BD
:1029B00000BD000030380240000002400008024024
:1029C000000C024010B5044614B101202F490870D4
:1029D0002E48007800283BD04FF480712C48FEF739
:1029E0005DF980B14FF400712948FEF757F950B1F5
:1029F00004212848FEF752F928B101212648FEF7A4
:102A00004DF9012824D10A2000F02EFE00201F4994
:102A100008704FF480711E48FEF740F908B9012094
:102A200010BD4FF400711A48FEF738F908B90220BA
:102A3000F6E704211748FEF731F908B90320EFE75C
:102A400001211548FEF72AF901281CD10420E7E7E7
:102A50004FF480710E48FEF721F9012813D141028D
:102A60000B48FEF71BF901280DD104210948FEF798
:102A700015F9012807D101210748FEF70FF910B910
:102A80000120024908700020CAE70000440000202D
:102A900000080240000C02400000024000B587B070
:102AA00000BF002001900F48006840F004000D496D
:102AB00008600846006800F00400019000BF00BFF5
:102AC000FF20029001200390049003200590012232
:102AD000FF210548FEF7EAF802A90348FDF7F4FFD5
:102AE00007B000BD303802400008024010B5012098
:102AF00004490860052000F0C3FD00200249C1F828
:102B0000900210BD908240420080404200B587B0E4
:102B100000BF002001902848006840F002002649CC
:102B200008600846006800F00200019000BF00BF86
:102B300000BF002001900846006840F004000860D3
:102B40000846006800F00400019000BF00BF382074
:102B500002900120039004900320059002A91748D9
:102B6000FDF7B2FF4FF4E050029002A91448FDF7C0
:102B7000ABFF002208211148FEF798F8002220211F
:102B80000E48FEF793F8012210210C48FEF78EF84C
:102B900000224FF480610A48FEF788F800224FF4C3
:102BA00000610748FEF782F800224FF48051044884
:102BB000FEF77CF807B000BD303802400004024048
:102BC0000008024000F00101064A1160C0F3400114
:102BD000054AC2F8AC12C0F38001024A0832116003
:102BE00070470000A80241420000414270B506460D
:102BF0000D46002412E046FA04F000F001000A49F4
:102C0000086000200949C1F89402052000F038FD51
:102C10000120054908310860601CC4B2082CEADBB9
:102C20002846FFF7CFFF70BD8C82404200804042B3
:102C300000BFFEE77047000002480068C0F30220B2
:102C4000704700000CED00E010B5002807DA0A0715
:102C5000140E054A00F00F031B1FD45403E00A07AB
:102C6000130E024A135410BD18ED00E000E400E01A
:102C70007047000010B50248FEF7FCFD10BD0000D3
:102C800008020020014600BF080900EB8000420056
:102C900001F00F001044C0B270470146002203E06B
:102CA000521CA1F10A00C1B20A29F9D2100741EA67
:102CB0001060704770B5044600252068C06800F0B9
:102CC0004000A0B9681E2168C860FDF7F5FF054601
:102CD00007E0FDF7F1FF401BB0F57A7F01D9032033
:102CE00070BD2068C06800F040000028F1D00020CE
:102CF000F6E7000010B51748174908600020486043
:102D00007F2115488160FF21C1600021016141617F
:102D10008161FEF73BFE08B1022010BD00210E4884
:102D2000FEF7C5FC45F25001884211D0002338223D
:102D300009210F2000F054F807231B220C210F203B
:102D400000F038F845F2500200210348FEF7B8FCC5
:102D50000020E2E70028004008020020F0B58BB018
:102D600004460D4616461F468DF804508DF8056042
:102D70008DF80670002002908DF8070006904FF045
:102D8000706007904FF0804008908DF824408015C7
:102D90000A90002201A90648FEF792FE02220121B4
:102DA0002920FDF7EDFF2920FDF7DDFF0BB0F0BD79
:102DB00008020020F8B504460D4617461E468DF859
:102DC00002708DF801508DF800608DF803400022EC
:102DD00069460248FEF786FFF8BD000008020020A1
:102DE000F0B585B004460D4616461F468DF80040E6
:102DF0008DF801508DF802608DF80370002003906B
:102E00000490002269460248FEF7EEFF05B0F0BDCF
:102E10000802002070B504460D460C480068C068E2
:102E200000F0800060F4906008490968C86022469C
:102E300029460648FEF74EFC022211460320FDF704
:102E40009FFF0320FDF78FFF70BD000008020020E8
:102E500010B50248FEF7E2FC10BD00000802002099
:102E6000704700002DE9F04393B004460D46164626
:102E70009846002700BF002001902F48006840F0CE
:102E800080502D4908600846006800F0805001908D
:102E900000BF00BF00BF002001902848006840F438
:102EA0004040264908600846006800F44040019010
:102EB00000BF00BF012007900004089002200D9081
:102EC00041050E910F9510941196CDF8488007A8F2
:102ED000FEF7C8F907460FB100BFFEE70F200290CA
:102EE00002200390002004904FF4805005900020B1
:102EF0000690032102A8FEF777F807460FB100BF3E
:102F0000FEE7FEF731F94FF47A71B0FBF1F948466C
:102F1000FFF735F8FEF728F94FF47A71B0FBF1F9B5
:102F20004846FFF72CF800221146501EFDF728FFF7
:102F300013B0BDE8F083000040380240007000404C
:102F400010B5FDF7BFFE10BD1448006840F47000D6
:102F5000124908601248006840F0010010490860FA
:102F600000200F49083108600D4800680D490840ED
:102F70000B4908600C48091D0860081F006820F410
:102F80008020091F0860002005490C3108604FF0BF
:102F900000600249803908607047000088ED00E059
:102FA00000380240FFFFF6FE1030002410B5024842
:102FB000FFF750F810BD0000CC01002070B50546A9
:102FC0000C460748074908600846446000218160B4
:102FD000C5600161FEF7EFFF0248FFF72BF870BDF7
:102FE00000040040CC01002010B50E480068C06805
:102FF00000F0010078B10C490869804700200949B8
:103000000968486200BF642006490968C8626421F3
:103010000448C16000BF6FF00100024909680861FF
:1030200010BD000030030020C40000200022026810
:10303000234B98420BD0B0F1804F08D0214B9842DF
:1030400005D0214B984202D0204B984201D1012358
:1030500000E000231BB122F070024B681A43184BAA
:10306000984214D0B0F1804F11D0164B98420ED038
:10307000154B98420BD0154B984208D0144B9842F0
:1030800005D0144B984202D0134B984201D1012332
:1030900000E000231BB122F44072CB681A430260A7
:1030A0008B68C3620B688362054B984201D1012390
:1030B00000E000230BB10B690363012343617047F8
:1030C000000001400004004000080040000C0040E7
:1030D00000400140004401400048014038B5054629
:1030E0000C4600BF002000901148006840F004002A
:1030F0000F4908600846006800F00400009000BF17
:1031000000BF032211461E20FDF73AFE1E20FDF7E8
:103110002AFE08480849086008464460002181608A
:10312000C5600161FEF747FF0348FEF783FF38BD26
:1031300040380240000800403003002070B50546CA
:10314000AC6B0020E085E0842046FFF72EFA70BDCE
:103150000168C96821F490710268D1600168496909
:1031600021F0010102685161202180F83A10704776
:1031700010B504462068C06820F040002168C8608F
:10318000202084F839002046FFF7BEFB002010BD48
:1031900070B5044694F83A00222844D1A068B0F5EE
:1031A000805F13D1A56A206940B920684068C0F3E8
:1031B00008002880A06A801CA06219E0206840688E
:1031C000C0B22880A06A401CA06211E0206938B912
:1031D00020684068C1B2A26A501CA062117007E06A
:1031E0002068406800F07F01A26A501CA062117044
:1031F000E08D401E80B2E08598B92068C06820F458
:1032000090702168C8602068406920F00100216842
:103210004861202084F83A002046FFF731FB002067
:1032200070BD0020FCE70220FAE700002DE9F04124
:10323000044600252068056925F44055E0680543EB
:10324000206805612068C56849F20C6085432169E2
:10325000A068084361690843E169084305432068A1
:10326000C5602068456925F44075A069054320685C
:103270004561E069B0F5004F7ED1C44920688842BD
:1032800003D0C349206888425DD1FDF783FF00EB7E
:10329000C00101EB001061684900B0FBF1F064214E
:1032A000B0FBF1F00601FDF775FF00EBC00101EB8B
:1032B000001061684900B0FBF1F7FDF76BFF00EB10
:1032C000C00101EB001061684900B0FBF1F064211E
:1032D000B0FBF1F000EBC00101EB0010A7EB8000A8
:1032E000322101EBC0006421B0FBF1F000F0F800E6
:1032F00006EB4006FDF74EFF00EBC00101EB0010AE
:1033000061684900B0FBF1F7FDF744FF00EBC00135
:1033100001EB001061684900B0FBF1F06421B0FBE3
:10332000F1F000EBC00101EB0010A7EB80003221AF
:1033300001EBC0006421B0FBF1F000F00700304465
:103340002168886020E1FDF715FF00EBC00101EB6B
:10335000001061684900B0FBF1F06421B0FBF1F0AE
:103360000601FDF707FF00EBC00101EB00106168EB
:103370004900B0FBF1F700E045E0FDF7FBFE00EB94
:10338000C00101EB001061684900B0FBF1F064215D
:10339000B0FBF1F000EBC00101EB0010A7EB8000E7
:1033A000322101EBC0006421B0FBF1F000F0F80025
:1033B00006EB4006FDF7DEFE00EBC00101EB00105E
:1033C00061684900B0FBF1F7FDF7D4FE00EBC001E6
:1033D00001EB001061684900B0FBF1F06421B0FB23
:1033E000F1F000EBC00101EB0010A7EB80003221EF
:1033F00001EBC0006421B0FBF1F000F007003044A5
:1034000021688860C0E061492068884203D0604933
:10341000206888425CD1FDF7BDFE00EBC00101EBE6
:10342000001061688900B0FBF1F6FDF7B3FE00EB18
:10343000C00101EB001061688900B0FBF1F064216C
:10344000B0FBF1F000EBC00101EB0010A6EB800037
:10345000322101EB00106421B0FBF1F000F0F00626
:10346000FDF798FE00EBC00101EB001061688900D8
:10347000B0FBF1F06421B0FBF1F006EB0016FDF7B4
:1034800089FE00EBC00101EB001061688900B0FB10
:10349000F1F7FDF77FFE00EBC00101EB0010616862
:1034A0008900B0FBF1F06421B0FBF1F000EBC0014A
:1034B00001EB0010A7EB8000322101EB001064212A
:1034C000B0FBF1F000F00F003044216888605BE051
:1034D000FDF750FE00EBC00101EB001061688900B0
:1034E000B0FBF1F6FDF746FE00EBC00101EB00106A
:1034F00061688900B0FBF1F06421B0FBF1F000EBF2
:10350000C00101EB0010A6EB8000322101EB00109E
:103510006421B0FBF1F000F0F006FDF72BFE00EBAC
:10352000C00101EB001061688900B0FBF1F064217B
:10353000B0FBF1F006EB0016FDF71CFE00EBC0013E
:1035400001EB001061688900B0FBF1F7FDF712FE96
:1035500000EBC00101EB001061688900B0FBF1F0E5
:103560006421B0FBF1F000EBC00101EB0010A7EB10
:103570008000322101EB00106421B0FBF1F000F07B
:103580000F00304421688860BDE8F08100100140E0
:1035900000140140014691F8390021282CD1886897
:1035A000B0F5805F0FD10A6A1088C0F308000B687D
:1035B0005860086918B9086A801C086209E0086A3E
:1035C000401C086205E00B6A581C086218780B68FA
:1035D0005860C88C401E80B2C88458B90868C0685A
:1035E00020F080000B68D8600868C06840F0400098
:1035F0000B68D860002070470220FCE710B500245B
:103600000C48FEF7DDFF00BF01E0641C00BF094865
:10361000FEF7CCFF2028F8D100BF002401E0641C95
:1036200000BF012204490348FFF7F8F80028F6D14B
:1036300000BF10BDF00200205200002000BFFEE7D6
:1036400030380A2801D2012070470020704700BF9F
:103650007047000010B504460420FEF77CFC0148CA
:10366000046010BD4800002030B50446002504E089
:103670004FF47A7000F004F86D1CA542F8D330BD09
:1036800070B5034600224FF0E02675690D4E36688E
:1036900003FB06F44FF0E026B16910E04FF0E0269E
:1036A000B06988420BD0884202D20E1A324402E03E
:1036B0002E1A0E4432440146A24200D300E0EDE748
:1036C00000BF70BD4800002000BF054A126802F02C
:1036D0004002002AF9D0C2B2014B5A607047000084
:1036E0000010014008B5002400200090FDF7F6FA14
:1036F0000423022219466020FFF7B4FB6020FFF785
:10370000A9FF4FF4E13000F0A1FBFFF7C7F9FFF785
:10371000FDF942F27F511320FFF750FCFB4841684E
:1037200060208847FFF7F4F8FDF7AAF8F8A0FCF747
:103730004BFE09E0F9A0FCF747FE4FF44870FFF795
:1037400093FFFAA0FCF740FEFFF7D4FA0028F1D16E
:1037500000210420FFF75EFBF8A0FCF735FEFAA07D
:10376000FCF732FE08E0FCA0FCF72EFEC820FFF7B5
:103770007BFFFDA0FCF728FEFDF7E6F80028F2D15C
:10378000FEA0FCF721FE2CE30020FFF71BF90090C0
:103790009DF8000001286ED002286DD0032802D0C9
:1037A00004286AD1E9E0F8480068022847D1641C7F
:1037B000012C06D0022C0DD0032C1ED0042C3DD1A0
:1037C00030E0F248006808B9012000E00020EF492D
:1037D000086033E0ED48006808B9012000E00020EF
:1037E000EA490860EA48D0F8980208B9012000E0E8
:1037F0000020E649091D086020E0E448001D00683B
:1038000008B9012000E00020E049091D0860E048F7
:10381000D0F89C0208B9012000E00020DB49083103
:1038200008600BE00024D9480830006808B901207E
:1038300000E00020D5490831086000BF00BFD24831
:10384000006888BB641C012C04D0022C0DD0032C12
:1038500030D122E0CD48001D006808B9012000E009
:103860000020CA49091D086024E0C848001D0068FE
:1038700020B9012003E0E4E01EE040E10020C3495C
:10388000091D0860C248D0F89C0208B9012000E078
:103890000020BE49083108600CE00024BB48083015
:1038A000006810B9012001E005E00020B7490831A7
:1038B000086000BF00BF22E1B348006802284AD177
:1038C000012C16D1B348007838B9B24882784178D3
:1038D00000231720FFF784FA0BE0AE480078401E63
:1038E000AC4908700B469A78597818780023FFF78E
:1038F00077FA022C16D1A748407838B9A5498A78BA
:10390000087800233B21FFF76BFA0BE0A1484078D1
:10391000401EA04948700B469A78597818780023C1
:10392000FFF75EFA032C16D19A48807838B9994A85
:103930005178107800233B22FFF752FA0BE09548AC
:103940008078401E934988700B469A785978187889
:103950000023FFF745FA8C48006868B9012C04D1B0
:103960008D480068401E8C490860022C04D18B48A9
:103970000068401E89490860C1E083480068022849
:103980004DD1012C17D183480078172807D18148E1
:103990008278417800231846FFF722FA0BE07D4831
:1039A0000078401C7B4908700B469A785978187843
:1039B0000023FFF715FA022C17D1764840783B28F0
:1039C00007D174498A78087800231946FFF708FA66
:1039D0000BE070484078401C6E4948700B469A785E
:1039E000597818780023FFF7FBF9032C17D16948A1
:1039F00080783B2807D1674A5178107800231A460F
:103A0000FFF7EEF90BE063488078401C614988704D
:103A10000B469A78597818780023FFF7E1F95A484D
:103A2000006868B9012C04D15B480068401C5A4901
:103A30000860022C04D159480068401C57490860AE
:103A40005DE057480068401C55490860084600681A
:103A5000042801D1002008605148006830B10128D5
:103A600019D0022823D0032847D131E000240120B7
:103A70004649143908604649C1F8840243490C3963
:103A8000086042490860091D0860091D086003209C
:103A90003D49086031E0002401203C4914390860A8
:103AA0003B49C1F8880202203749086025E000241C
:103AB00001203649143908603549C1F88402334978
:103AC0000860091D0860091D08602F49086014E09E
:103AD000002401202D49143908602D49C1F88402C1
:103AE0002A490C39086029490860091D0860091D28
:103AF000086000202449086000BF00BF00BF00BF6D
:103B00002148006803287DD100204BE0C40000203C
:103B100052544320544553540D0A0000525443203C
:103B20004552524F52210D0A0000000052544320CA
:103B3000547279696E672E2E2E0D0A00525443205E
:103B40004F4B0D0A000000004448543131205445C9
:103B500053540D0A0000000044485431312045728E
:103B6000726F720D0A0000004448543131205472C3
:103B700079696E672E2E2E0D0A00000044485431DC
:103B800031204F4B0D0A00001800002094024142E2
:103B900000004142B801002034000020380000201D
:103BA0001C0000208F4908708F4988788D4909785A
:103BB000FFF71CF8FEF79AFF8A480078401C8949F5
:103BC00008708949487887490978FFF70FF8FEF7A8
:103BD0008DFF84480078401C82490870824908782B
:103BE00080490978FFF702F8FEF780FF7D480078EA
:103BF000401C7C4908707C4988787A490978FEF72E
:103C0000F5FF00E040E0FEF771FF76480078401CC9
:103C1000744908707449087972490978FEF7E6FF1B
:103C2000FEF764FF6F480078401C6E4908706E49CB
:103C3000C8786C490978FEF7D9FFFEF757FF694845
:103C40000078401C674908706749487865490978D9
:103C5000FEF7CCFFFEF74AFF62480078401C61493E
:103C600008706149C8795F490978FEF7BFFFFEF720
:103C70003DFF5C480078401C5A49087008460078AF
:103C8000082801D100200870584800785849096870
:103C9000884205DA574800785749096888427DDB31
:103CA00056480068012879D1534802685048016895
:103CB00053A0FCF789FB00205C49086031E000223A
:103CC0005B4801785B48FCF7F1FF01225A48017814
:103CD0005848FCF7EBFF00224FF480715748FCF77F
:103CE000E5FF6420FFF7C0FC012211025348FCF7F6
:103CF000DDFF6420FFF7B8FC4D4800784006000E59
:103D00004B4908704C4800784006000E4A4908703C
:103D100008460078401C087044480068401C43492D
:103D20000860424800680728C9DB00224FF4807110
:103D30004248FCF7BBFF6420FFF796FC012211020A
:103D40003E48FCF7B3FF6420FFF78EFC6020384943
:103D500008708020384908700020344908602DE040
:103D60000022334801783348FCF7A0FF0122324893
:103D700001783048FCF79AFF00224FF480712F48F9
:103D8000FCF794FF6420FFF76FFC012211022B481F
:103D9000FCF78CFF6420FFF767FC00E019E0244883
:103DA00000784010224908702348007840102249CA
:103DB00008701E480068401C1C4908601B480068C9
:103DC0000628CDDB03201A49087000201A49087024
:103DD00007E0012211021948FCF768FF0120184989
:103DE0000860D1E42E000020000000202C000020FC
:103DF000340000202D000020380000201800002092
:103E0000BEAFB8E621CEC2CAAAB6C8B9FDB8DF2196
:103E100028CEC2B6C8B8DFD3DA25642CCAAAB6C881
:103E2000B8DFD3DA2564290D0A0000002000002045
:103E3000310000200008024032000020000402404F
:103E400084024142014608687047000010B50446EC
:103E500009480A4908600846446000218160C16041
:103E6000016181610C214161FEF750FC012204498E
:103E70000248FEF7D3FC10BD00100140F002002004
:103E80005200002030B595B0054613AB12AA09A91F
:103E9000284600F03FFA044614B1204615B030BD64
:103EA0000020149026E0224909689DF8502001EB7B
:103EB000C20113AB11AA486801A900F02BFA04460D
:103EC0000CB12046EAE709A901A800F0E1FC60B9BD
:103ED0009DF844009DF84810884201DD0220DDE78E
:103EE0009DF85000124988750AE09DF85000401C6A
:103EF000C0B214900E48007D9DF850108842D2DC6C
:103F000000BF0B48007D9DF85010884201D104206D
:103F1000C4E714A9284600F0DDFA04460CB1204697
:103F2000BCE79DF85000024948750020B6E7000044
:103F3000C40000202DE9F0419AB09C48847D007DAA
:103F4000A04202DC1AB0BDE8F0819849096801EB93
:103F5000C40106AB07AA486808A900F0DBF908A964
:103F600093A0FCF731FA002644E09048008B012131
:103F7000B1400840D8B122218FA0FCF725FA304685
:103F800000F02EFB89492431471839468BA0FCF7F5
:103F90001BFA222188A0FCF717FA304600F020FB1C
:103FA00082492431084410A941F8260018E030461F
:103FB00000F016FB7D492431085810A941F826006D
:103FC0007A48C07D30B910A850F826107CA0FCF7C4
:103FD000FBF905E010A850F826107AA0FCF7F4F9D8
:103FE0009DF81C00401EB04202D078A0FCF7ECF90E
:103FF000701CC6B29DF81C008642B6DB74A0FCF7AC
:10400000E3F900F03FFB6948407D0B280DD2DFE863
:1040100000F0060D151E27323F4E5F728700634980
:10402000096851F834008047054690E05F4A1268FD
:1040300052F8341010988847054688E05B4B1B689F
:1040400053F83420DDE91001904705467FE0574FD3
:104050003F6857F8343010A807C89847054676E0FF
:10406000DFF848C1DCF800C05CF8347010A80FC855
:10407000B84705466BE01498DFF830C10090DCF8D3
:1040800000C05CF8347010A80FC8B84705465EE061
:10409000DDE91401DFF814C1CDE90001DCF800C04E
:1040A0005CF8347010A80FC8B84705464FE0DDE94A
:1040B00014121698DFF8F4C0CDE900120290DCF873
:1040C00000C05CF8347010A80FC8B84705463EE041
:1040D000DDE91423DDE91610DFF8D0C0CDE90023B7
:1040E000CDE90210DCF800C05CF8347010A80FC8ED
:1040F000B84705462BE0DDE91523DDE91710CDE9CA
:104100000123CDE903101498DFF8A0C00090DCF87B
:1041100000C05CF8347010A80FC8B847054616E018
:10412000DDE91623DDE91810CDE90223CDE90410FD
:10413000DDE91401DFF874C0CDE90001DCF800C04E
:104140005CF8347010A80FC8B847054600BF00BF20
:1041500000F056FA9DF8180001280CD11348C07DD4
:1041600020B929461BA0FCF72FF907E029461BA020
:10417000FCF72AF902E018A0FCF726F90B4890F8A2
:10418000EC0088B10948D0F8F0000A21B0FBF1F248
:1041900001FB12070548D0F8F000B0FBF1F83A46F1
:1041A000414611A0FCF710F900BFCBE6C400002087
:1041B0000D0A257328000000256300002573000008
:1041C000256C640030582558000000002C000000C9
:1041D000290000003D256C753B0D0A003D30582537
:1041E000583B0D0A0000000046756E6374696F6EDF
:1041F0002052756E2054696D653A25642E25316410
:104200006D730D0A00000000F0B50346154600204E
:104210000022002600245BE01F782C2F01D104B976
:1042200001221F78292F01D01F780FB904B950E05F
:10423000002E3AD11F78302F02DB1F78392F17DD7F
:104240001F782D2F14D01F782B2F11D01F78612F9E
:1042500002DB1F78662F0BDD1F78412F02DB1F78F2
:10426000462F05DD1F78582F02D01F78782F0CD1EC
:1042700002B12EE01F78612F03DB1F78203F0F7003
:1042800001E01F780F70491C1FE01F78222F04D116
:1042900002B11EE00126012417E01F78202F14D060
:1042A0001F782C2F11D0FF2613E01F78222F00D16A
:1042B000002402B10DE044B11F785C2F02D15B1CD9
:1042C000471CF8B21F780F70491C471CF8B25B1CE2
:1042D000A2E700BF00270F702E70F0BD10B5044696
:1042E000002010700BE020780870641C491C1078C6
:1042F000401C10701078984201DB012010BD20781E
:10430000202802D020780028EDD10020087000BFBE
:10431000F4E700002DE9FF4F85B08046894600276D
:10432000002004900390012002904FF0000B002524
:1043300044461DE02078202816D005F07F0005288F
:1043400012DA0DB945F0800505F07F00042803D18D
:1043500020782A2800D00EE0207805F07F010DF8A3
:104360000100681CC5B202E0852D00D103E0641C89
:1043700020780028DED100BF8DB1002005F07F013C
:104380000DF8010051A1684600F082FA18B9002129
:104390000898017002E001210898017000254FF093
:1043A000000A444614E0641C0AF1010000F0FF0A10
:1043B0002078202802D020782A2809D1204600F031
:1043C000D9F90646282E03D02A2E01D0CDF810A008
:1043D0002078282802D020780028E4D14446049888
:1043E00010B10498401C04444FF0000A002654E029
:1043F000207810B94FF0010A50E02078282803D126
:1044000016B9781CC7B213E02078292808D13EB924
:1044100017B1781EC7B201E04FF0010A47B93DE07D
:104420002078222804D10EB9012000E000200646A1
:1044300047B9207820282FD0207889F8000009F18A
:10444000010929E020782C2804D101200290681C61
:10445000C5B214E02078202811D0207828280ED06A
:104460004DB9BBF1050F06DA20780DF80B000BF102
:10447000010000F0FF0B0298401CC0B20290012F17
:104480000AD10298022807D10298401CC0B20290BB
:104490000398401CC0B20390641CA9E700BF0398B6
:1044A000012809D100200DF80B0008A1684600F092
:1044B000EFF908B9002003900799039808700020CD
:1044C00089F80000504609B0BDE8F08F766F696446
:1044D000000000002DE9F043B5B005460F4600246A
:1044E000002604E000213D488155701CC6B20A2E0A
:1044F000F8DB06E06D1C287818B9012035B0BDE85E
:10450000F08328782828F5D16D1C61E034AA69462B
:104510002846FFF779FE064635449DF8D00020B1C5
:10452000012827D0FF284CD149E09DF8000000B3B6
:1045300033A9684600F029F906460EB10220DDE7EE
:10454000204600F04DF825490A31339A0A50A1F16E
:104550002400008B0121A140884320491A39088397
:1045600004211E480155601CC4B20A2C01DD032041
:10457000C4E726E0684600F0A7F9401C00F0FF08F9
:10458000204600F02DF815490A3100EB0109494693
:10459000684600F08EF911481A38018B0120A040BE
:1045A000014388B20D491A3908830C4800F8048089
:1045B000601CC4B20A2C01DD03209FE701E0022049
:1045C0009CE700BF2878292801D0287800B900E0AE
:1045D0009CE700BF3C70002090E70000DE00002058
:1045E00002460020002105E0044B5B5C0344D8B286
:1045F0004B1CD9B29142F7DB70470000DE0000206F
:104600000E480068006900F0010040B10C48D0F885
:10461000F0004FF6FF7108440949C1F8F00008485E
:10462000D0F8F00005490968496A08440449C1F80E
:10463000F0000846D0F8F00070470000300300207A
:10464000C400002010B5044604EBC40000EB0410C5
:104650000122C2EB800081B24FF47A70FEF73EFD7A
:1046600001200149C87510BDC400002010B50246E4
:10467000012000E050430B1EA1F10104E1B2F9D189
:1046800010BD00006FF0010009490968086100BF12
:10469000000C07490968C86201460548C16000BFAF
:1046A00000200349096848620249C1F8F0007047D8
:1046B00030030020C400002070B51D48008800F4BD
:1046C0000040002833D01A48057800201949485581
:1046D000194881681748884704461CB91649C868B4
:1046E000804721E0134800F0FBF80546012D00D07B
:1046F0002C46CCB1012C06D0022C08D0032C0AD0B9
:10470000042C10D10BE00DA0FBF75EFE0BE00EA019
:10471000FBF75AFE07E00FA0FBF756FE03E010A0E0
:10472000FBF752FE00BF00BF00200149088070BDAA
:104730005000002028020020C4000020BAAFCAFDAB
:10474000B4EDCEF3210D0A00B2CECAFDB4EDCEF326
:10475000210D0A00B2CECAFDCCABB6E0210D0A0095
:10476000CEB4D5D2B5BDC6A5C5E4B5C4BAAFCAFDF1
:10477000210D0A000146491C00E0491C0878202848
:1047800001D10029F9D1087870472DE9F04F05468D
:104790000F4600264FF00A09B3462C460020386029
:1047A00034E02078392802DC2078302811DA2878A3
:1047B0002D2802D028782B2800D156B12078462801
:1047C00002DC2078412804DA2078582817D1012EFD
:1047D00015D12078412801DB4FF0100928782D28C9
:1047E00003D14FF0020B6D1C0FE028782B2803D16A
:1047F0004FF0010B6D1C08E0701CC6B205E020787C
:1048000000B904E00120BDE8F08F641CC9E700BFD7
:104810002C46B9F1100F0FD1032E01DA0220F2E776
:104820002078302806D16078582803D1A41CB01E07
:10483000C6B204E00320E6E70EB90420E3E71BE07C
:104840000EB1701EC6B22078392806DC20783028D8
:1048500003DB2078A0F1300A02E02078A0F1370ACB
:1048600031464846FFF702FF39680AFB00103860FE
:10487000641C207800B900E0E2E700BFBBF1020F42
:1048800004D13868C0F10008C7F800800020BAE7FA
:1048900002460AE010780B78984201D00120704758
:1048A000107800B902E0521C491CF3E700BF002059
:1048B000F5E706E002780A70027802B902E0401CCF
:1048C000491CF7E700BF70470146002005E00A7861
:1048D00002B903E0421CD0B2491CF8E700BF7047A0
:1048E00010B58CB004461E230BAA03A92046FFF77F
:1048F000F5FC0090009810B101200CB010BD9DF89F
:104900002C00044400200B900EE040489DF82C2021
:1049100050F8221003A8FFF7BBFF00B908E09DF88C
:104920002C00401CC0B20B909DF82C000728ECD343
:1049300000BF9DF82C00072863D2DFE800F00405D3
:104940003C5E6564630000BF31A0FBF73DFD31A014
:10495000FBF73AFD3FA0FBF737FD4EA0FBF734FD18
:104960005CA0FBF731FD6BA0FBF72EFD79A0FBF7F8
:104970002BFD87A0FBF728FD8CA0FBF725FD94A05D
:10498000FBF722FD98A0FBF71FFD9DA0FBF71CFD88
:10499000A2A0FBF719FDA8A0FBF716FDB4A0FBF73A
:1049A00013FDC1A0FBF710FDCCA0FBF70DFDD8A0B7
:1049B000FBF70AFDA2E216A0FBF706FDE4A0FBF759
:1049C00003FD00200B900EE0F14800689DF82C20BC
:1049D00000EBC2004168EFA0FBF7F6FC9DF82C004D
:1049E000401CC0B20B90EA48007D9DF82C10884214
:1049F000EADC07A0FBF7E8FC80E205A0FBF7E4FC9B
:104A0000CCE179E24DE221E2F4E100006000002017
:104A10000D0A00002D2D2D2D2D2D2D2D2D2D2D2D63
:104A20002D2D2D2D2D2D2D2D2D2D2D2D55534D4134
:104A300052542056332E322D2D2D2D2D2D2D2D2D32
:104A40002D2D2D2D2D2D2D2D2D2D2D2D2D2D2D20A3
:104A50000D0A00002020202055534D415254CAC752
:104A6000D3C9414C49454E54454BBFAAB7A2B5C422
:104A7000D2BBB8F6C1E9C7C9B5C4B4AEBFDAB5F7A1
:104A8000CAD4BBA5BDBBD7E9BCFE2CCDA8B9FD20BF
:104A90000D0A0000CBFC2CC4E3BFC9D2D4CDA8B909
:104AA000FDB4AEBFDAD6FACAD6B5F7D3C3B3CCD00D
:104AB000F2C0EFC3E6B5C4C8CEBACEBAAFCAFD2CB9
:104AC000B2A2D6B4D0D02ED2F2B4CB2CC4E3BFC99C
:104AD0000D0A0000D2D4CBE6D2E2B8FCB8C4BAAF1B
:104AE000CAFDB5C4CAE4C8EBB2CECAFD28D6A7B386
:104AF000D6CAFDD7D62831302F3136BDF8D6C62CD0
:104B0000D6A7B3D6B8BACAFD29A1A2D7D6B7FBB4E7
:104B1000AE0D0A00A1A2BAAFCAFDC8EBBFDAB5D884
:104B2000D6B7B5C8D7F7CEAAB2CECAFD292CB5A53F
:104B3000B8F6BAAFCAFDD7EEB6E0D6A7B3D63130D5
:104B4000B8F6CAE4C8EBB2CECAFD2CB2A2D6A7B35F
:104B5000D60D0A00BAAFCAFDB7B5BBD8D6B5CFD40B
:104B6000CABE2ED6A7B3D6B2CECAFDCFD4CABEBD5A
:104B7000F8D6C6C9E8D6C3B9A6C4DC2CD6A7B3D626
:104B8000BDF8D6C6D7AABBBBB9A6C4DC2E0D0A0099
:104B9000BCBCCAF5D6A7B3D63A7777772E6F7065C7
:104BA0006E6564762E636F6D0D0A000055534D419E
:104BB0005254D3D037B8F6CFB5CDB3C3FCC1EE282D
:104BC000B1D8D0EBD0A1D0B4293A0D0A0000000032
:104BD0003F3A202020202020BBF1C8A1B0EFD6FA18
:104BE000D0C5CFA20D0A000068656C703A20202065
:104BF000BBF1C8A1B0EFD6FAD0C5CFA20D0A000014
:104C00006C6973743A202020BFC9D3C3B5C4BAAF4E
:104C1000CAFDC1D0B1ED0D0A0A00000069643A2056
:104C200020202020BFC9D3C3BAAFCAFDB5C44944B0
:104C3000C1D0B1ED0D0A0A006865783A2020202025
:104C4000B2CECAFD3136BDF8D6C6CFD4CABE2CBA54
:104C5000F3B8FABFD5B8F12BCAFDD7D6BCB4D6B4D9
:104C6000D0D0BDF8D6C6D7AABBBB0D0A0A0000003B
:104C70006465633A20202020B2CECAFD3130BDF8F1
:104C8000D6C6CFD4CABE2CBAF3B8FABFD5B8F12B6A
:104C9000CAFDD7D6BCB4D6B4D0D0BDF8D6C6D7AA34
:104CA000BBBB0D0A0A00000072756E74696D653A2F
:104CB000312CBFAAC6F4BAAFCAFDD4CBD0D0BCC683
:104CC000CAB13B302CB9D8B1D5BAAFCAFDD4CBD01C
:104CD000D0BCC6CAB13B0D0A0A000000C7EBB0B495
:104CE000D5D5B3CCD0F2B1E0D0B4B8F1CABDCAE4E6
:104CF000C8EBBAAFCAFDC3FBBCB0B2CECAFDB2A20C
:104D0000D2D4BBD8B3B5BCFCBDE1CAF82E0D0A00A5
:104D10002D2D2D2D2D2D2D2D2D2D2D2D2D2D2D2DC3
:104D20002D2D2D2D2D2D2D2D2D2D414C49454E5404
:104D3000454B2D2D2D2D2D2D2D2D2D2D2D2D2D2D6D
:104D40002D2D2D2D2D2D2D2D2D2D2D200D0A00003D
:104D50002D2D2D2D2D2D2D2D2D2D2D2D2D2D2D2D83
:104D60002D2D2D2D2D2D2D2D2DBAAFCAFDC7E5B51D
:104D7000A52D2D2D2D2D2D2D2D2D2D2D2D2D2D2DEB
:104D80002D2D2D2D2D2D2D2D2D2D2D2D200D0A00D0
:104D9000C400002025730D0A0000000059A0FBF795
:104DA00013FB00200B901AE0664909689DF82C203F
:104DB00001EBC20101AB02AA486803A9FFF7AAFAF6
:104DC000604800689DF82C1050F8312003A95EA0BF
:104DD000FBF7FAFA9DF82C00401CC0B20B90594822
:104DE000007D9DF82C108842DEDCAFF2DC30FBF752
:104DF000EBFA83E0AFF2E830FBF7E6FA0BAA03A97F
:104E00002046FFF701FA9DF82C00C8B9694603A8AF
:104E1000FFF7BBFC0B909DF82C0020B94FA0009928
:104E2000FBF7D2FA0EE09DF82C00042801D00220F6
:104E300063E54DA0FBF7C8FA01204249C87501E0BF
:104E400002205AE547A0FBF7BFFA57E045A0FBF761
:104E5000BBFA0BAA03A92046FFF7D6F99DF82C0050
:104E6000C8B9694603A8FFF790FC0B909DF82C0089
:104E700020B942A00099FBF7A7FA0EE09DF82C009C
:104E8000042801D0022038E53FA0FBF79DFA00205E
:104E90002C49C87501E002202FE532A0FBF794FAF7
:104EA0002CE030A0FBF790FA0BAA03A92046FFF7ED
:104EB000ABF99DF82C00C8B9694603A8FFF765FC5B
:104EC0000B909DF82C0078B91E49009881F8EC00F1
:104ED000084690F8EC0018B130A0FBF775FA07E02F
:104EE00035A0FBF771FA03E0022006E5022004E595
:104EF0001CA0FBF769FA01E00120FEE400BF0020DE
:104F0000FBE400002D2D2D2D2D2D2D2D2D2D2D2DA6
:104F10002D2D2D2D2D2D2D2D2D2D2D2D2DBAAFCA15
:104F2000FD204944202D2D2D2D2D2D2D2D2D2D2DC8
:104F30002D2D2D2D2D2D2D2D2D2D2D2D2D2D2D2DA1
:104F4000200D0A00C40000202573206964206973C5
:104F50003A0D0A3058253038580D0A004845583A5D
:104F6000305825580D0A00003136BDF8D6C6B2CEED
:104F7000CAFDCFD4CABE210D0A0000004445433A01
:104F8000256C750D0A0000003130BDF8D6C6B2CED2
:104F9000CAFDCFD4CABE210D0A00000052756E2092
:104FA00054696D652043616C63756C6174696F6EE3
:104FB000204F4E0D0A00000052756E2054696D6539
:104FC0002043616C63756C6174696F6E204F464657
:104FD0000D0A0000016070474FF04070E1EE100ACA
:104FE00070470000000000000000010203040607F3
:104FF0000809000000000102030430313233343567
:105000003637383941424344454640305800303104
:10501000323334353637383961626364656640301F
:1050200078000400000800000000000000020001F9
:10503000000010003F000000646563006964000028
:1050400072756E74696D650068656C7000000000B3
:105050006C6973740000000068657800766F69649D
:105060002044485428753820612C75382062290066
:10507000766F6964205254435F5365745F416C617D
:10508000726D41287538207765656B2C75382068FE
:105090006F75722C7538206D696E2C7538207365AC
:1050A000632900007538205254435F5365745F4490
:1050B00061746528753820796561722C7538206DAA
:1050C0006F6E74682C753820646174652C75382097
:1050D0007765656B29000000766F696420777269D7
:1050E00074655F6164647228753332206164647230
:1050F0002C7533322076616C2900000075382052FF
:1051000054435F5365745F54696D65287538206832
:105110006F75722C7538206D696E2C75382073652B
:10512000632C753820616D706D2900007533322055
:10513000726561645F6164647228753332206164F2
:1051400064722900766F69642064656C61795F6DB3
:105150007328753136206E6D73290000766F69648F
:105160002064656C61795F757328753332206E75C4
:1051700073290000766F6964205254435F5365744D
:105180005F57616B65557028753820776B73656C58
:105190002C75313620636E7429000000BC51000864
:1051A00000000020B8010000D40100084C520008A3
:1051B000B801002018080000300200087012FC60DE
:1051C000DAF266B6BEE0FEF6EE3E9C7A9E8E01B244
:1051D000031A0202911919321E82501324F4693401
:1051E000C1321029181334501B0848041A50041AED
:1051F0003C041A58041A38041A400413453E140893
:105200002C511408D54F1B08D8101369361B0844BD
:10521000101A81081A5C0813E12D1B08FC181AB536
:10522000081AA4081A5D081A700813152E2B0874A2
:10523000381A08281910227C142045461B0885506E
:0C52400013353F1B08B90C4A097F01D947
:040000050800019955
:00000001FF
