:020000040800F2
:1000000040090020990200081D190008C3180008C3
:100010001919000889080008A52000080000000040
:100020000000000000000000000000005B19000854
:100030008D0800080000000059190008391A00084E
:10004000B9020008B9020008B9020008B9020008A4
:10005000B9020008B9020008B9020008B902000894
:10006000B9020008B9020008B9020008B902000884
:10007000B9020008B9020008B9020008B902000874
:10008000B9020008B9020008B90200080000000027
:10009000000000000000000000000000B90200089D
:1000A000B9020008B9020008B9020008B902000844
:1000B000B9020008411A0008511A0008B9020008E4
:1000C000B9020008B9020008B9020008B902000824
:1000D000B902000865200008B9020008000000000D
:1000E000B9020008B9020008B902000800000000C7
:1000F000000000000000000000000000B90200083D
:1001000000000000B9020008B9020008B9020008A6
:1001100000000000000000000000000000000000DF
:10012000B9020008B9020008B9020008B9020008C3
:10013000B9020008000000000000000000000000FC
:10014000000000000000000000000000B9020008EC
:10015000B9020008B9020008B9020008B902000893
:10016000B9020008B9020008000000000000000009
:10017000000000000000000000000000000000007F
:1001800000000000B90200080000000000000000AC
:10019000B9020008B902000800F002F800F06DF89A
:1001A0000AA090E8000C82448344AAF10107DA45D2
:1001B00001D100F062F8AFF2090EBAE80F0013F0B7
:1001C000010F18BFFB1A43F001031847AC320000BF
:1001D000CC3200000A444FF0000C10F8013B13F041
:1001E000070408BF10F8014B1D1108BF10F8015B90
:1001F000641E05D010F8016B641E01F8016BF9D183
:1002000013F0080F1EBF10F8014BAD1C0C1B09D1D9
:100210006D1E58BF01F801CBFAD505E014F8016B4B
:1002200001F8016B6D1EF9D59142D6D370470000DD
:100230000023002400250026103A28BF78C1FBD8EF
:10024000520728BF30C148BF0B607047642900F0D7
:100250001B81752900F01881782900F051816329EC
:1002600000F0A582732900F0AA82002070471FB514
:1002700003F06AF81FBD10B510BD00F0D3FA1146A7
:10028000FFF7F5FF01F068FF00F0F1FA03B4FFF7A4
:10029000F2FF03BC01F00FFF0B48016841F470014D
:1002A00001600A480047FEE7FEE7FEE7FEE7FEE7DB
:1002B000FEE7FEE7FEE7FEE7FEE70000044805492B
:1002C000054A064B7047000088ED00E099010008E0
:1002D0004003002040090020400500204005002088
:1002E000704753EA020C00F069802DE9F04B4FF0A3
:1002F0000006002B1FBFB3FA83F503FA05F424FAB6
:1003000005F65E4012BF1643B2FA82F502FA05F412
:10031000C5F120051EBF22FA05FC44EA0C04203575
:1003200056EA044C4FEA144418BF641C4FF000080E
:100330004FF00009904271EB030C39D3002919BF2B
:10034000B1FA81F701FA07F6B0FA80F700FA07F67A
:10035000C7F120071EBF20FA07FC46EA0C0620372B
:10036000B6FBF4FCA7EB0507103F07F01F0BCBF122
:1003700020060CFA0BFB2CFA06F644BFB346002607
:10038000202FA4BF5E464FF0000B5BEA060C08BFAF
:100390004FF0010B19EB0B09ABFB027C48EB060895
:1003A000C01B06FB02CC0BFB03CC71EB0C01C1E7BD
:1003B0000B46024641464846BDE8F08B13B54FF068
:1003C00000004FF00001AFF30080BDE81C40704713
:1003D0000FB4044910B503AA029800F0F5F910BC57
:1003E0005DF814FB0800002070B5044685690068BC
:1003F000C10601D5302600E02026C00707D070BD19
:10040000D4E9012130469047206A401C20626D1ECD
:10041000F6D570BD70B5044685690078C00707D170
:1004200070BDD4E9012120209047206A401C206241
:100430006D1EF6D570BD70B50C460546012A05D077
:100440002878800600D5EA69002302E0012305E050
:100450005B1C934202D2E05C0028F9D1A869E6183F
:10046000C01AA861286A184428622846FFF7BCFF12
:1004700004E0D5E9012114F8010B9047B442F8D308
:100480002846FFF7C7FF70BD2DE9F041064600245E
:1004900010687529314616A510D0AFF300800028EA
:1004A00002DA404213A507E031688A0701D512A598
:1004B00002E0490704D511A5012401E0AFF3008053
:1004C00000210A2206F1240709E0B0FBF2FCB0FB90
:1004D000F2F302FB1C00303078541846491C002807
:1004E000F3D123462A463046BDE8F04100F0FCB87F
:1004F000000000002D0000002B0000002000000084
:1005000070B504460D4621461068AFF3008021887F
:10051000090502D50F4A7A4402E00E4A7A440E32A7
:10052000002104F1240305E000F00F060009965DA8
:100530005E54491C0028F7D120780023000704D519
:10054000702D02D009B1022311322046BDE870405F
:1005500000F0CAB8502E00002DE9F05F894604462D
:100560004FF0000ADFF874B1FB44C0F820A0204629
:10057000E1688847002874D0252806D0D4E90121F5
:100580009047206A401C2062F1E700265F46204623
:10059000E16888472028054607DB312D05D2781908
:1005A00010F8200C08B10643F1E7B00701D526F09A
:1005B0000406C4F81CA00027C4F818A02A2D09D0EE
:1005C000284601F071FD38B304EB8708303DC8F8C8
:1005D000185019E059F8041B204604EB870291617A
:1005E000E1688847012F054618D1E069002820DA24
:1005F00026F020061DE0D8F8180000EB800005EB7F
:1006000040003038C8F818002046E16888470546A1
:1006100001F04AFD0028EED1012F0AD02E2D08D17D
:100620002046E16888477F1C0546022F46F02006D9
:10063000C4DBA069002803DA404246F00106A0614D
:10064000F00701D026F010066C2D0BD0682D09D0D4
:100650004C2D39D06A2D35D0742D35D07A2D33D02C
:1006600016E038E0E1682F4620468847B842054644
:1006700009D16C2F26D04FF48060E16806432046F4
:100680008847054604E06C2F1AD04FF4807006436B
:100690000DB3A5F14100192802D8203546F40066B3
:1006A0004A462946204626604E46FFF7CFFD80B1D8
:1006B00001280BD0F61D26F0070000F1080956E7C7
:1006C0004020E4E78020D8E70020D6E706F10409BF
:1006D0004DE7284652E7206ABDE8F09F262E00002D
:1006E00070477047704770472DE9F0470D469946AF
:1006F0009246044600F124080168880604D5E069A2
:1007000021F01001216000E00120A84201DD471B1B
:1007100000E00027A1697A1902EB0900081AA0611C
:100720002078C00602D42046FFF75EFE002608E0CF
:10073000D4E901211AF806009047206A401C761C73
:1007400020624E45F4DB2078C0060AD52046FFF72C
:100750004BFE06E0D4E9012130209047206A401C7E
:100760002062381EA7F10107F4DC07E0D4E901217B
:1007700018F805009047206A401C2062281EA5F149
:100780000105F3DC2046FFF745FE2078000602D580
:100790000220BDE8F0870120FBE710B5436913B1E3
:1007A000AFF3008001E0FFF746FE012010BD127894
:1007B00000F124010A7000224A700122EDE711685D
:1007C0004FF0FF32E9E70000074B70B50D467B4460
:1007D00000F011F80446284600F020F810B14FF060
:1007E000FF3070BD204670BD5F19000001694A1CD2
:1007F00002610878704700B58FB0CDE90131002162
:10080000059105497944CDE9031011466846FFF783
:10081000A3FE0FB000BD0000E5FFFFFF007B00F06E
:1008200080007047754600F02BF8AE46050069461B
:10083000534620F00700854618B020B5FFF73EFD6F
:10084000BDE820404FF000064FF000074FF00008D1
:100850004FF0000B21F00701AC46ACE8C009ACE852
:10086000C009ACE8C009ACE8C0098D46704710B5B6
:100870000446AFF300802046BDE81040FFF706BDF8
:1008800000487047DC02002000BFFEE770470146C9
:1008900091F83500022803D0802048650120704778
:1008A000052081F835000868006820F001000A681A
:1008B00010600020F3E70000F8B503460A46002563
:1008C000002400200021CDE0012606FA01F516687B
:1008D00006EA0504AC4273D15668022E02D056686F
:1008E000122E13D1CF0803F1200656F827004E0729
:1008F000F70E0F26BE40B0434F07FF0E1669BE40ED
:100900003043CF0803F1200646F8270018684F004F
:100910000326BE40B043167906F003064F00BE40E2
:10092000304318605668012E08D05668022E05D054
:100930005668112E02D05668122E13D198684F00B7
:100940000326BE40B0434F00D668BE403043986097
:10095000586801268E40B0431679C6F300168E40C3
:1009600030435860D8684F000326BE40B0434F0064
:100970009668BE403043D860566806F08056B6F19F
:10098000805F6ED100BF00260096384E366846F470
:100990008046364F3E603E46366806F480460096F6
:1009A00000BF00BF324E8F0856F827008E07370F62
:1009B0000F26BE40B0432F4EB34202D1002615E0B1
:1009C0004FE02D4EB34201D101260FE02B4EB34232
:1009D00001D102260AE02A4EB34201D1032605E0E6
:1009E000284EB34201D1042600E007268F073F0FAF
:1009F000BE4030431E4E8F0846F82700224E306816
:100A0000A043566806F48036B6F5803F00D12043F7
:100A10001D4E3060361D3068A043566806F400361F
:100A2000B6F5003F00D12043174E361D3060361D0D
:100A30003068A043566806F48016B6F5801F00D1D2
:100A40002043114E08363060361D3068A04356688A
:100A500006F40016B6F5001F00D120430A4E0C36EE
:100A60003060491C1029FFF42FAFF8BD4438024014
:100A70000838014000000240000402400008024023
:100A8000000C024000100240003C01400AB18161AC
:100A900001E00B0483617047014800687047000063
:100AA0001000002003480068034909780844014900
:100AB00008607047100000201800002010B50D4895
:100AC000006840F400700B4908600846006840F474
:100AD000806008600846006840F480700860032069
:100AE00000F07CF80F2000F007F800F02BF8002051
:100AF00010BD0000003C024070B504460E4800786E
:100B00004FF47A71B1FBF0F00C490968B1FBF0F5D4
:100B1000284600F0EDFB08B1012070BD102C07D273
:100B200000222146501E00F01BF80548046001E039
:100B30000120F2E70020F0E718000020000000206C
:100B400014000020704700BF00F01F0201219140F7
:100B50004209920002F1E022C2F8001100BF704782
:100B60002DE9F05F80460D461646002700F0D8FEBE
:100B7000074639462A46334601F00700C0F1070A06
:100B8000BAF1040F02D94FF0040A01E0C0F1070ADC
:100B9000D14600F1040ABAF1070F02D24FF0000A61
:100BA00001E0A0F1030AD4464FF0010A0AFA09FA5B
:100BB000AAF1010A0AEA020A0AFA0CFA4FF0010B3A
:100BC0000BFA0CFBABF1010B0BEA030B4AEA0B042B
:100BD0002146404600F0ACFEBDE8F09F00BF00F0AB
:100BE0000702064B19684FF6FF031940044B0B43ED
:100BF00043EA0221014B196000BF70470CED00E091
:100C00000000FA0570B504460D460CB9012070BD10
:100C10005848006800F00F00A84209D255490D70ED
:100C20000846006800F00F00A84201D00120EEE75E
:100C3000207800F0020002281DD1207800F0040086
:100C4000042805D14C48006840F4E0504A49086047
:100C5000207800F00800082805D14748006840F4D3
:100C60006040454908604448006820F0F000A168F1
:100C7000084341490860207800F00100A8B360688B
:100C8000012807D13C4808380068C0F34040B8B993
:100C90000120BCE76068022802D06068032807D101
:100CA000354808380068C0F3406048B90120AEE715
:100CB000314808380068C0F3400008B90120A6E7B1
:100CC0002D48006820F00300616808432A49086045
:100CD000FFF7E2FE064609E0FFF7DEFE801B41F269
:100CE0008831884202D9032091E707E02248006852
:100CF00000F00C006168B0EB810FEDD11D48006879
:100D000000F00F00A84209D91A490D700846006882
:100D100000F00F00A84201D0012078E7207800F011
:100D20000400042807D11448006820F4E050E1686A
:100D3000084311490860207800F00800082808D10D
:100D40000D48006820F46040216940EAC1000A496A
:100D5000086000F03DF808490968C1F30311074A2B
:100D6000515CC840064908600F20FFF7C5FE00200F
:100D70004DE70000003C02400838024052330008B2
:100D800000000020014800687047000000000020BB
:100D900000B5FFF7F7FF04490968C1F38221034A50
:100DA000515CC84000BD00000838024062330008B2
:100DB00000B5FFF7E7FF04490968C1F34231034A70
:100DC000515CC84000BD0000083802406233000892
:100DD0002DE9F047002400250026A146254800689B
:100DE00000F00C0020B1042805D008283AD105E015
:100DF000DFF8849039E0DFF8849036E01D48001F6A
:100E0000006800F03F041B48001F006800F48000E9
:100E100078B11A481749091F0968C1F38811A0FB66
:100E200001700146224600233846FFF75AFA05466C
:100E30000EE011480F49091F0968C1F38811A0FB92
:100E400001700146224600233846FFF74AFA05465C
:100E50000848001F0068C0F30140401C4600B5FB75
:100E6000F6F902E0DFF8109000BF00BF4846BDE889
:100E7000F0870000083802400024F40000127A00D5
:100E8000F8B504460CB90120F8BD207800F0010047
:100E9000002874D0F948006800F00C0004280DD038
:100EA000F648006800F00C00082813D1F348001F32
:100EB000006800F48000B0F5800F0BD1EF480838CF
:100EC0000068C0F34040002859D06068002856D11F
:100ED0000120D9E700BF6068B0F5803F08D1E7483E
:100EE0000838006840F48030E449083908601EE0A2
:100EF0006068B0F5A02F0DD1E0480838006840F4D4
:100F00008020DE49083908600846006840F48030D7
:100F100008600CE0D9480838006820F48030D749D0
:100F2000083908600846006820F48020086000BF87
:100F3000606890B1FFF7B0FD054606E0FFF7ACFD35
:100F4000401B642801D903209EE7CC48083800687C
:100F5000C0F340400028F1D011E0FFF79DFD0546A9
:100F600006E0FFF799FD401B642801D903208BE7B9
:100F7000C24808380068C0F340400028F1D120780A
:100F800000F0020002285FD1BC48006800F00C00AD
:100F900058B1BA48006800F00C0008281CD1B748C6
:100FA000001F006800F48000B0B9B4480838006839
:100FB000C0F3400020B1E068012801D0012063E7C0
:100FC000AE480838006820F0F800216940EAC10006
:100FD000AA490839086037E0E06800B30120A84951
:100FE0000860FFF759FD054606E0FFF755FD401B79
:100FF000022801D9032047E7A04808380068C0F359
:1010000040000028F1D09D480838006820F0F80022
:10101000216940EAC10099490839086014E00020BC
:1010200097490860FFF738FD054606E0FFF734FDF5
:10103000401B022801D9032026E7904808380068A1
:10104000C0F340000028F1D1207800F00800082803
:101050002CD16069A8B101208A490860FFF71CFD06
:10106000054606E0FFF718FD401B022801D90320C2
:101070000AE782486C300068C0F340000028F1D0D5
:1010800014E000207F490860FFF706FD054606E0F2
:10109000FFF702FD401B022801D90320F4E6774840
:1010A0006C300068C0F340000028F1D1207800F0D7
:1010B0000400042870D1002670483830006800F021
:1010C000805090B900BF002000906C483830006814
:1010D00040F080506949383108600846006800F0E7
:1010E0008050009000BF00BF01266748006800F4F0
:1010F0008070B0B96448006840F48070624908604C
:10110000FFF7CAFC054606E0FFF7C6FC401B0228B5
:1011100001D90320B8E65C48006800F4807000281C
:10112000F2D000BFA068012808D154486830006898
:1011300040F001005149683108601DE0A0680528B1
:101140000DD14E486830006840F004004B496831CA
:1011500008600846006840F0010008600CE047485D
:101160006830006820F00100444968310860084692
:10117000006820F00400086000BFA068A8B1FFF775
:101180008BFC054609E0FFF787FC401B41F28831E4
:10119000884202D9032077E626E0384868300068A4
:1011A000C0F340000028EED013E0FFF775FC0546C1
:1011B00008E0FFF771FC401B41F28831884201D9F9
:1011C000032061E62D4868300068C0F34000002825
:1011D000EFD1012E07D129483830006820F0805027
:1011E00026493831086000BFA069B8B323480068B9
:1011F00000F00C0008285ED0A069022846D100202B
:101200001F490866FFF748FC054606E0FFF744FC67
:10121000401B022801D9032036E618480838006828
:10122000C0F340600028F1D1D4E907010843616AA6
:1012300040EA81110122A06AC2EB500041EA00415C
:101240002C20005D41EA00600C49091F0860012064
:101250000B490866FFF720FC054607E02DE0FFF785
:101260001BFC401B022801D903200DE60348083867
:101270000068C0F340600028F1D01EE0083802404A
:1012800000004742800E47420070004000200C4999
:101290000866FFF701FC054606E0FFF7FDFB401B73
:1012A000022801D90320EFE506480068C0F340603A
:1012B0000028F2D101E00120E6E50020E4E500008D
:1012C0000000474200380240042808D14FF0E021D6
:1012D000096941F004014FF0E022116107E04FF08D
:1012E000E021096921F004014FF0E022116170470B
:1012F00070B504462546681EB0F1807F01D30120F9
:101300000FE0681E4FF0E02148610F214FF0FF30E1
:1013100000F00EFB00204FF0E021886107200861FB
:10132000002070BD7047704710B504460CB901200D
:1013300010BD94F8390028B9002084F83800204600
:1013400000F00CF8022084F83900211D206800F01C
:10135000A1FB012084F839000020E9E738B50446F4
:101360000E492068884217D100BF002000900C4829
:10137000006840F002000A4908600846006800F072
:101380000200009000BF00BF032201211D20FFF7D3
:10139000E7FB1D20FFF7D7FB38BD0000000400402D
:1013A0004038024001460868C06840F001000A6801
:1013B000D0600868006840F001000A6810600020F2
:1013C0007047704710B5044620680069C0F34000BC
:1013D000D8B12068C068C0F34000B0B16FF002001F
:1013E00021680861012020762068806900F00300F0
:1013F00018B12046FFF7E5FF05E0204600F0ADF804
:10140000204600F0ABF80020207620680069C0F389
:101410008000D8B12068C068C0F38000B0B16FF020
:10142000040021680861022020762068806900F4A9
:10143000407018B12046FFF7C4FF05E0204600F0D9
:101440008CF8204600F08AF8002020762068006999
:10145000C0F3C000D8B12068C068C0F3C000B0B10C
:101460006FF0080021680861042020762068C069B8
:1014700000F0030018B12046FFF7A3FF05E0204667
:1014800000F06BF8204600F069F800202076206814
:101490000069C0F30010D8B12068C068C0F3001024
:1014A000B0B16FF010002168086108202076206834
:1014B000C06900F4407018B12046FFF782FF05E0D4
:1014C000204600F04AF8204600F048F80020207638
:1014D0002068006900F0010058B12068C06800F081
:1014E000010030B16FF0010021680861204600F072
:1014F00036F820680069C0F3C01058B12068C06891
:10150000C0F3C01030B16FF0800021680861204640
:10151000FFF708FF20680069C0F3801058B1206809
:10152000C068C0F3801030B16FF0400021680861DE
:10153000204600F015F820680069C0F3401058B14B
:101540002068C068C0F3401030B16FF020002168FF
:1015500008612046FFF7E7FE10BD704770477047EF
:101560007047704701460022002391F8392091F816
:101570003A3042EA030070472DE9F04704462068FC
:1015800005682068C668206847694FF00008C146B2
:1015900005F00F08B8F1000F0AD105F0200038B1AE
:1015A00006F0200020B1204600F026FBBDE8F087C1
:1015B000B8F1000F6DD007F0010018B906F4907073
:1015C000002866D005F0010030B106F4807018B133
:1015D000E06B40F00100E06305F0040030B107F07B
:1015E000010018B1E06B40F00200E06305F002007A
:1015F00030B107F0010018B1E06B40F00400E06387
:1016000005F0080030B107F0010018B1E06B40F0C0
:101610000800E063E06B68B305F0200028B106F035
:10162000200010B1204600F0E7FA20684069C0F3BE
:101630008019E06B00F0080010B9B9F1000F22D05A
:10164000204600F0B9FA2068406900F04000B0B1CF
:101650002068406920F0400021684861606B50B10B
:101660001748616B0865606BFFF711F910B1606B8B
:10167000016D88470CE02046FFF773FF08E0204625
:10168000FFF76FFF04E02046FFF76BFF0020E063E9
:101690008CE705F0800030B106F0800018B12046DC
:1016A00000F0ACFC82E705F0400030B106F04000ED
:1016B00018B1204600F090FA78E700BF76E7000006
:1016C000A51B000810B504460CB9012010BDA06987
:1016D00000B100E000BF94F8390028B9002084F878
:1016E0003800204600F028F8242084F839002068CB
:1016F000C06820F400502168C860204600F0CAFA93
:101700002068006920F490402168086120684069E1
:1017100020F02A00216848612068C06840F4005029
:101720002168C8600020E063202084F8390084F834
:101730003A000020CAE7000010B586B004462249EE
:10174000206888423ED100BF002000901F480068FA
:1017500040F001001D4908600846006800F00100E3
:10176000009000BF00BF00BF002000901748143059
:10177000006840F010001549143108600846006800
:1017800000F01000009000BF00BF4815019002203B
:10179000029001200390022004900720059001A9E7
:1017A0000B48FFF789F84FF48060019001A90848C1
:1017B000FFF782F82520FFF7C6F9032211462520FE
:1017C000FFF7CEF906B010BD0010014030380240DE
:1017D0000000024010B5034693F83A00202829D1B2
:1017E00001B10AB9012010BD00BF93F838000128EB
:1017F00001D10220F7E7012083F8380000BF996289
:101800009A85DA850020D863222083F83A0000BF49
:10181000002083F8380000BF1868406940F00100DC
:101820001C6860611868C06840F490701C68E060D3
:101830000020D8E70220D6E71D4A0168914236D140
:101840001C49098801F4004189BB1A49098801F43F
:10185000804171B1184909780A2903D00021154A3D
:10186000118024E01349098841F40041114A118094
:101870001DE0114909780D2906D10E49098841F466
:1018800080410C4A118012E00B490978094A1288FC
:10189000C2F30D02094B995406490988491C054AAF
:1018A000118011460988C72901DD00211180704788
:1018B000001001400C0000200E00002098010020C4
:1018C000704700BFFEE7000000B587B000BF0020F2
:1018D00001900F48006840F004000D490860084678
:1018E000006800F00400019000BF00BFFF200290DC
:1018F000012003900490032005900122FF21054858
:10190000FFF7C4F802A90348FEF7D6FF07B000BDF1
:10191000303802400008024000BFFEE77047000078
:1019200002480068C0F30220704700000CED00E0A0
:1019300010B5002807DA0A07140E054A00F00F0355
:101940001B1FD45403E00A07130E024A135410BDA0
:1019500018ED00E000E400E0704770472DE9F04327
:1019600093B004460D4616469846002700BF002057
:1019700001902F48006840F080502D4908600846CB
:10198000006800F08050019000BF00BF00BF002041
:1019900001902848006840F4404026490860084605
:1019A000006800F44040019000BF00BF0120079094
:1019B0000004089002200D9041050E910F9510949F
:1019C0001196CDF8488007A8FFF75AFA07460FB1DD
:1019D00000BFFEE70F200290022003900020049039
:1019E0004FF48050059000200690032102A8FFF7D5
:1019F00009F907460FB100BFFEE7FFF7C3F94FF43F
:101A00007A71B0FBF1F94846FFF772FCFFF7BAF9BB
:101A10004FF47A71B0FBF1F94846FFF769FC0022F8
:101A20001146501EFFF79CF813B0BDE8F08300008C
:101A3000403802400070004010B5FFF733F810BD89
:101A400010B50248FFF7BEFC10BD00005C0100208D
:101A500010B50E480068C06800F0010078B10C496C
:101A600008698047002009490968486200BF64206E
:101A700006490968C86264210448C16000BF6FF06C
:101A8000010002490968086110BD0000A0020020A1
:101A90006800002000220268234B98420BD0B0F16E
:101AA000804F08D0214B984205D0214B984202D05C
:101AB000204B984201D1012300E000231BB122F00A
:101AC00070024B681A43184B984214D0B0F1804F03
:101AD00011D0164B98420ED0154B98420BD0154B97
:101AE000984208D0144B984205D0144B984202D02B
:101AF000134B984201D1012300E000231BB122F4D3
:101B00004072CB681A4302608B68C3620B688362C1
:101B1000054B984201D1012300E000230BB10B6972
:101B2000036301234361704700000140000400404B
:101B300000080040000C004000400140004401400B
:101B40000048014038B505460C4600BF0020009013
:101B50001148006840F004000F490860084600681A
:101B600000F00400009000BF00BF032211461E20B9
:101B7000FEF7F6FF1E20FEF7E6FF0848084908605A
:101B80000846446000218160C5600161FFF7CCFB1D
:101B90000348FFF707FC38BD40380240000800400A
:101BA000A002002070B50546AC6B0020E085E08403
:101BB0002046FFF7D6FC70BD0168C96821F490711A
:101BC0000268D1600168496921F001010268516130
:101BD000202180F83A10704710B504462068C0688C
:101BE00020F040002168C860202084F83900204699
:101BF000FFF766FE002010BD70B5044694F83A0069
:101C0000222844D1A068B0F5805F13D1A56A20696D
:101C100040B920684068C0F308002880A06A801C92
:101C2000A06219E020684068C0B22880A06A401C09
:101C3000A06211E0206938B920684068C1B2A26A88
:101C4000501CA062117007E02068406800F07F011E
:101C5000A26A501CA0621170E08D401E80B2E08527
:101C600098B92068C06820F490702168C860206826
:101C7000406920F0010021684861202084F83A0082
:101C80002046FFF7D9FD002070BD0020FCE70220B0
:101C9000FAE700002DE9F0410446002520680569B7
:101CA00025F44055E0680543206805612068C56853
:101CB00049F20C6085432169A068084361690843C3
:101CC000E169084305432068C5602068456925F43B
:101CD0004075A069054320684561E069B0F5004F93
:101CE0007ED1C4492068884203D0C3492068884215
:101CF0005DD1FFF75DF800EBC00101EB00106168FA
:101D00004900B0FBF1F06421B0FBF1F00601FFF7F0
:101D10004FF800EBC00101EB001061684900B0FB17
:101D2000F1F7FFF745F800EBC00101EB0010616827
:101D30004900B0FBF1F06421B0FBF1F000EBC00111
:101D400001EB0010A7EB8000322101EBC000642101
:101D5000B0FBF1F000F0F80006EB4006FFF728F8C2
:101D600000EBC00101EB001061684900B0FBF1F726
:101D7000FFF71EF800EBC00101EB0010616849009D
:101D8000B0FBF1F06421B0FBF1F000EBC00101EB1E
:101D90000010A7EB8000322101EBC0006421B0FBF2
:101DA000F1F000F0070030442168886020E1FEF780
:101DB000EFFF00EBC00101EB001061684900B0FBD0
:101DC000F1F06421B0FBF1F00601FEF7E1FF00EB5A
:101DD000C00101EB001061684900B0FBF1F700E0C1
:101DE00045E0FEF7D5FF00EBC00101EB0010616894
:101DF0004900B0FBF1F06421B0FBF1F000EBC00151
:101E000001EB0010A7EB8000322101EBC000642140
:101E1000B0FBF1F000F0F80006EB4006FEF7B8FF6B
:101E200000EBC00101EB001061684900B0FBF1F765
:101E3000FEF7AEFF00EBC00101EB00106168490046
:101E4000B0FBF1F06421B0FBF1F000EBC00101EB5D
:101E50000010A7EB8000322101EBC0006421B0FB31
:101E6000F1F000F00700304421688860C0E061496B
:101E70002068884203D06049206888425CD1FEF720
:101E800097FF00EBC00101EB001061688900B0FB17
:101E9000F1F6FEF78DFF00EBC00101EB0010616869
:101EA0008900B0FBF1F06421B0FBF1F000EBC00160
:101EB00001EB0010A6EB8000322101EB0010642141
:101EC000B0FBF1F000F0F006FEF772FF00EBC0018E
:101ED00001EB001061688900B0FBF1F06421B0FBF8
:101EE000F1F006EB0016FEF763FF00EBC00101EB1B
:101EF000001061688900B0FBF1F7FEF759FF00EBB5
:101F0000C00101EB001061688900B0FBF1F06421B1
:101F1000B0FBF1F000EBC00101EB0010A7EB80007B
:101F2000322101EB00106421B0FBF1F000F00F0052
:101F30003044216888605BE0FEF72AFF00EBC001B7
:101F400001EB001061688900B0FBF1F6FEF720FF9D
:101F500000EBC00101EB001061688900B0FBF1F0FB
:101F60006421B0FBF1F000EBC00101EB0010A6EB27
:101F70008000322101EB00106421B0FBF1F000F091
:101F8000F006FEF705FF00EBC00101EB00106168F1
:101F90008900B0FBF1F06421B0FBF1F006EB001614
:101FA000FEF7F6FE00EBC00101EB0010616889004E
:101FB000B0FBF1F7FEF7ECFE00EBC00101EB001007
:101FC00061688900B0FBF1F06421B0FBF1F000EB37
:101FD000C00101EB0010A7EB8000322101EB0010E3
:101FE0006421B0FBF1F000F00F00304421688860FC
:101FF000BDE8F0810010014000140140014691F855
:10200000390021282CD18868B0F5805F0FD10A6A89
:102010001088C0F308000B685860086918B9086A8E
:10202000801C086209E0086A401C086205E00B6A2F
:10203000581C086218780B685860C88C401E80B223
:10204000C88458B90868C06820F080000B68D86060
:102050000868C06840F040000B68D86000207047F6
:102060000220FCE710B500240C48FFF785FA00BFFA
:1020700001E0641C00BF0948FFF774FA2028F8D17A
:1020800000BF002401E0641C00BF01220449034892
:10209000FFF7A0FB0028F6D100BF10BD60020020B2
:1020A0000E00002000BFFEE730380A2801D20120D0
:1020B00070470020704700BF7047000010B504460D
:1020C0000420FFF701F90148046010BD040000205E
:1020D00030B50446002504E04FF47A7000F004F8AF
:1020E0006D1CA542F8D330BD70B5034600224FF0F9
:1020F000E02675690D4E366803FB06F44FF0E026C6
:10210000B16910E04FF0E026B06988420BD08842F8
:1021100002D20E1A324402E02E1A0E443244014614
:10212000A24200D300E0EDE700BF70BD0400002034
:1021300000BF054A126802F04002002AF9D0C2B27C
:10214000014B5A60704700000010014001490860CF
:102150007047000088024142FEF7B0FC04230222CF
:1021600019466020FFF7FAFB6020FFF7A7FF4FF446
:10217000E13000F023F8FFF7A7FB09484168602031
:1021800088470BE00748006808B9012000E00020FC
:10219000044908604FF4FA70FFF79AFFF2E7000075
:1021A000680000208002414201460868704770B50F
:1021B00005460C462046A84770BD000010B50446F1
:1021C00009480A4908600846446000218160C160EE
:1021D000016181610C214161FFF774FA0122044918
:1021E0000248FFF7F7FA10BD00100140600200201E
:1021F0000E00002030B595B0054613AB12AA09A910
:10220000284600F03FFA044614B1204615B030BD10
:102210000020149026E0224909689DF8502001EB27
:10222000C20113AB11AA486801A900F02BFA0446B9
:102230000CB12046EAE709A901A800F0E1FC60B969
:102240009DF844009DF84810884201DD0220DDE73A
:102250009DF85000124988750AE09DF85000401C16
:10226000C0B214900E48007D9DF850108842D2DC18
:1022700000BF0B48007D9DF85010884201D104201A
:10228000C4E714A9284600F0DDFA04460CB1204644
:10229000BCE79DF85000024948750020B6E70000F1
:1022A000680000202DE9F0419AB09C48847D007DB3
:1022B000A04202DC1AB0BDE8F0819849096801EB40
:1022C000C40106AB07AA486808A900F0DBF908A911
:1022D00093A0FEF77DF8002644E09048008B012192
:1022E000B1400840D8B122218FA0FEF771F83046E6
:1022F00000F02EFB89492431471839468BA0FEF7A0
:1023000067F8222188A0FEF763F8304600F020FB32
:1023100082492431084410A941F8260018E03046CB
:1023200000F016FB7D492431085810A941F8260019
:102330007A48C07D30B910A850F826107CA0FEF76E
:1023400047F805E010A850F826107AA0FEF740F8EC
:102350009DF81C00401EB04202D078A0FEF738F86D
:10236000701CC6B29DF81C008642B6DB74A0FEF756
:102370002FF800F03FFB6948407D0B280DD2DFE8C5
:1023800000F0060D151E27323F4E5F72870063492D
:10239000096851F834008047054690E05F4A1268AA
:1023A00052F8341010988847054688E05B4B1B684C
:1023B00053F83420DDE91001904705467FE0574F80
:1023C0003F6857F8343010A807C89847054676E0AC
:1023D000DFF848C1DCF800C05CF8347010A80FC802
:1023E000B84705466BE01498DFF830C10090DCF880
:1023F00000C05CF8347010A80FC8B84705465EE00E
:10240000DDE91401DFF814C1CDE90001DCF800C0FA
:102410005CF8347010A80FC8B84705464FE0DDE9F6
:1024200014121698DFF8F4C0CDE900120290DCF81F
:1024300000C05CF8347010A80FC8B84705463EE0ED
:10244000DDE91423DDE91610DFF8D0C0CDE9002363
:10245000CDE90210DCF800C05CF8347010A80FC899
:10246000B84705462BE0DDE91523DDE91710CDE976
:102470000123CDE903101498DFF8A0C00090DCF828
:1024800000C05CF8347010A80FC8B847054616E0C5
:10249000DDE91623DDE91810CDE90223CDE90410AA
:1024A000DDE91401DFF874C0CDE90001DCF800C0FB
:1024B0005CF8347010A80FC8B847054600BF00BFCD
:1024C00000F056FA9DF8180001280CD11348C07D81
:1024D00020B929461BA0FDF77BFF07E029461BA07A
:1024E000FDF776FF02E018A0FDF772FF0B4890F8A9
:1024F000EC0088B10948D0F8F0000A21B0FBF1F2F5
:1025000001FB12070548D0F8F000B0FBF1F83A469D
:10251000414611A0FDF75CFF00BFCBE6680000203C
:102520000D0A2573280000002563000025730000B4
:10253000256C640030582558000000002C00000075
:10254000290000003D256C753B0D0A003D305825E3
:10255000583B0D0A0000000046756E6374696F6E8B
:102560002052756E2054696D653A25642E253164BC
:102570006D730D0A00000000F0B5034615460020FB
:102580000022002600245BE01F782C2F01D104B923
:1025900001221F78292F01D01F780FB904B950E00C
:1025A000002E3AD11F78302F02DB1F78392F17DD2C
:1025B0001F782D2F14D01F782B2F11D01F78612F4B
:1025C00002DB1F78662F0BDD1F78412F02DB1F789F
:1025D000462F05DD1F78582F02D01F78782F0CD199
:1025E00002B12EE01F78612F03DB1F78203F0F70B0
:1025F00001E01F780F70491C1FE01F78222F04D1C3
:1026000002B11EE00126012417E01F78202F14D00C
:102610001F782C2F11D0FF2613E01F78222F00D116
:10262000002402B10DE044B11F785C2F02D15B1C85
:10263000471CF8B21F780F70491C471CF8B25B1C8E
:10264000A2E700BF00270F702E70F0BD10B5044642
:10265000002010700BE020780870641C491C107872
:10266000401C10701078984201DB012010BD2078CA
:10267000202802D020780028EDD10020087000BF6B
:10268000F4E700002DE9FF4F85B08046894600271A
:10269000002004900390012002904FF0000B0025D1
:1026A00044461DE02078202816D005F07F0005283C
:1026B00012DA0DB945F0800505F07F00042803D13A
:1026C00020782A2800D00EE0207805F07F010DF850
:1026D0000100681CC5B202E0852D00D103E0641C36
:1026E00020780028DED100BF8DB1002005F07F01E9
:1026F0000DF8010051A1684600F082FA18B90021D6
:102700000898017002E001210898017000254FF03F
:10271000000A444614E0641C0AF1010000F0FF0ABC
:102720002078202802D020782A2809D1204600F0DD
:10273000D9F90646282E03D02A2E01D0CDF810A0B4
:102740002078282802D020780028E4D14446049834
:1027500010B10498401C04444FF0000A002654E0D5
:10276000207810B94FF0010A50E02078282803D1D2
:1027700016B9781CC7B213E02078292808D13EB9D1
:1027800017B1781EC7B201E04FF0010A47B93DE02A
:102790002078222804D10EB9012000E0002006464E
:1027A00047B9207820282FD0207889F8000009F137
:1027B000010929E020782C2804D101200290681C0E
:1027C000C5B214E02078202811D0207828280ED017
:1027D0004DB9BBF1050F06DA20780DF80B000BF1AF
:1027E000010000F0FF0B0298401CC0B20290012FC4
:1027F0000AD10298022807D10298401CC0B2029068
:102800000398401CC0B20390641CA9E700BF039862
:10281000012809D100200DF80B0008A1684600F03E
:10282000EFF908B900200390079903980870002079
:1028300089F80000504609B0BDE8F08F766F6964F2
:10284000000000002DE9F043B5B005460F46002416
:10285000002604E000213D488155701CC6B20A2EB6
:10286000F8DB06E06D1C287818B9012035B0BDE80A
:10287000F08328782828F5D16D1C61E034AA6946D8
:102880002846FFF779FE064635449DF8D00020B172
:10289000012827D0FF284CD149E09DF8000000B363
:1028A00033A9684600F029F906460EB10220DDE79B
:1028B000204600F04DF825490A31339A0A50A1F11B
:1028C0002400008B0121A140884320491A39088344
:1028D00004211E480155601CC4B20A2C01DD0320EE
:1028E000C4E726E0684600F0A7F9401C00F0FF08A6
:1028F000204600F02DF815490A3100EB0109494640
:10290000684600F08EF911481A38018B0120A0406A
:10291000014388B20D491A3908830C4800F8048035
:10292000601CC4B20A2C01DD03209FE701E00220F5
:102930009CE700BF2878292801D0287800B900E05A
:102940009CE700BF3C70002090E700008200002060
:1029500002460020002105E0044B5B5C0344D8B232
:102960004B1CD9B29142F7DB704700008200002077
:102970000E480068006900F0010040B10C48D0F832
:10298000F0004FF6FF7108440949C1F8F00008480B
:10299000D0F8F00005490968496A08440449C1F8BB
:1029A000F0000846D0F8F00070470000A0020020B8
:1029B0006800002010B5044604EBC40000EB0410CE
:1029C0000122C2EB800081B24FF47A70FFF7BAF8AF
:1029D00001200149C87510BD6800002010B50246ED
:1029E000012000E050430B1EA1F10104E1B2F9D136
:1029F00010BD00006FF0010009490968086100BFBF
:102A0000000C07490968C86201460548C16000BF5B
:102A100000200349096848620249C1F8F000704784
:102A2000A00200206800002070B51D48008800F456
:102A30000040002833D01A4805780020194948552D
:102A4000194881681748884704461CB91649C86860
:102A5000804721E0134800F0FBF80546012D00D027
:102A60002C46CCB1012C06D0022C08D0032C0AD065
:102A7000042C10D10BE00DA0FDF7AAFC0BE00EA07A
:102A8000FDF7A6FC07E00FA0FDF7A2FC03E010A0F5
:102A9000FDF79EFC00BF00BF00200149088070BD0B
:102AA0000C0000209801002068000020BAAFCAFD89
:102AB000B4EDCEF3210D0A00B2CECAFDB4EDCEF3D3
:102AC000210D0A00B2CECAFDCCABB6E0210D0A0042
:102AD000CEB4D5D2B5BDC6A5C5E4B5C4BAAFCAFD9E
:102AE000210D0A000146491C00E0491C08782028F5
:102AF00001D10029F9D1087870472DE9F04F05463A
:102B00000F4600264FF00A09B3462C4600203860D5
:102B100034E02078392802DC2078302811DA28784F
:102B20002D2802D028782B2800D156B120784628AD
:102B300002DC2078412804DA2078582817D1012EA9
:102B400015D12078412801DB4FF0100928782D2875
:102B500003D14FF0020B6D1C0FE028782B2803D116
:102B60004FF0010B6D1C08E0701CC6B205E0207828
:102B700000B904E00120BDE8F08F641CC9E700BF84
:102B80002C46B9F1100F0FD1032E01DA0220F2E723
:102B90002078302806D16078582803D1A41CB01EB4
:102BA000C6B204E00320E6E70EB90420E3E71BE029
:102BB0000EB1701EC6B22078392806DC2078302885
:102BC00003DB2078A0F1300A02E02078A0F1370A78
:102BD00031464846FFF702FF39680AFB00103860AB
:102BE000641C207800B900E0E2E700BFBBF1020FEF
:102BF00004D13868C0F10008C7F800800020BAE7A7
:102C000002460AE010780B78984201D00120704704
:102C1000107800B902E0521C491CF3E700BF002005
:102C2000F5E706E002780A70027802B902E0401C7B
:102C3000491CF7E700BF70470146002005E00A780D
:102C400002B903E0421CD0B2491CF8E700BF70474C
:102C500010B58CB004461E230BAA03A92046FFF72B
:102C6000F5FC0090009810B101200CB010BD9DF84B
:102C70002C00044400200B900EE040489DF82C20CE
:102C800050F8221003A8FFF7BBFF00B908E09DF839
:102C90002C00401CC0B20B909DF82C000728ECD3F0
:102CA00000BF9DF82C00072863D2DFE800F0040580
:102CB0003C5E6564630000BF31A0FDF789FB31A075
:102CC000FDF786FB3FA0FDF783FB4EA0FDF780FBE1
:102CD0005CA0FDF77DFB6BA0FDF77AFB79A0FDF70B
:102CE00077FB87A0FDF774FB8CA0FDF771FB94A028
:102CF000FDF76EFB98A0FDF76BFB9DA0FDF768FB51
:102D0000A2A0FDF765FBA8A0FDF762FBB4A0FDF74C
:102D10005FFBC1A0FDF75CFBCCA0FDF759FBD8A081
:102D2000FDF756FBA2E216A0FDF752FBE4A0FDF76B
:102D30004FFB00200B900EE0F14800689DF82C201E
:102D400000EBC2004168EFA0FDF742FB9DF82C00AC
:102D5000401CC0B20B90EA48007D9DF82C108842C0
:102D6000EADC07A0FDF734FB80E205A0FDF730FBAD
:102D7000CCE179E24DE221E2F4E100001C00002008
:102D80000D0A00002D2D2D2D2D2D2D2D2D2D2D2D10
:102D90002D2D2D2D2D2D2D2D2D2D2D2D55534D41E1
:102DA00052542056332E322D2D2D2D2D2D2D2D2DDF
:102DB0002D2D2D2D2D2D2D2D2D2D2D2D2D2D2D2050
:102DC0000D0A00002020202055534D415254CAC7FF
:102DD000D3C9414C49454E54454BBFAAB7A2B5C4CF
:102DE000D2BBB8F6C1E9C7C9B5C4B4AEBFDAB5F74E
:102DF000CAD4BBA5BDBBD7E9BCFE2CCDA8B9FD206C
:102E00000D0A0000CBFC2CC4E3BFC9D2D4CDA8B9B5
:102E1000FDB4AEBFDAD6FACAD6B5F7D3C3B3CCD0B9
:102E2000F2C0EFC3E6B5C4C8CEBACEBAAFCAFD2C65
:102E3000B2A2D6B4D0D02ED2F2B4CB2CC4E3BFC948
:102E40000D0A0000D2D4CBE6D2E2B8FCB8C4BAAFC7
:102E5000CAFDB5C4CAE4C8EBB2CECAFD28D6A7B332
:102E6000D6CAFDD7D62831302F3136BDF8D6C62C7C
:102E7000D6A7B3D6B8BACAFD29A1A2D7D6B7FBB494
:102E8000AE0D0A00A1A2BAAFCAFDC8EBBFDAB5D831
:102E9000D6B7B5C8D7F7CEAAB2CECAFD292CB5A5EC
:102EA000B8F6BAAFCAFDD7EEB6E0D6A7B3D6313082
:102EB000B8F6CAE4C8EBB2CECAFD2CB2A2D6A7B30C
:102EC000D60D0A00BAAFCAFDB7B5BBD8D6B5CFD4B8
:102ED000CABE2ED6A7B3D6B2CECAFDCFD4CABEBD07
:102EE000F8D6C6C9E8D6C3B9A6C4DC2CD6A7B3D6D3
:102EF000BDF8D6C6D7AABBBBB9A6C4DC2E0D0A0046
:102F0000BCBCCAF5D6A7B3D63A7777772E6F706573
:102F10006E6564762E636F6D0D0A000055534D414A
:102F20005254D3D037B8F6CFB5CDB3C3FCC1EE28D9
:102F3000B1D8D0EBD0A1D0B4293A0D0A00000000DE
:102F40003F3A202020202020BBF1C8A1B0EFD6FAC4
:102F5000D0C5CFA20D0A000068656C703A20202011
:102F6000BBF1C8A1B0EFD6FAD0C5CFA20D0A0000C0
:102F70006C6973743A202020BFC9D3C3B5C4BAAFFB
:102F8000CAFDC1D0B1ED0D0A0A00000069643A2003
:102F900020202020BFC9D3C3BAAFCAFDB5C449445D
:102FA000C1D0B1ED0D0A0A006865783A20202020D2
:102FB000B2CECAFD3136BDF8D6C6CFD4CABE2CBA01
:102FC000F3B8FABFD5B8F12BCAFDD7D6BCB4D6B486
:102FD000D0D0BDF8D6C6D7AABBBB0D0A0A000000E8
:102FE0006465633A20202020B2CECAFD3130BDF89E
:102FF000D6C6CFD4CABE2CBAF3B8FABFD5B8F12B17
:10300000CAFDD7D6BCB4D6B4D0D0BDF8D6C6D7AAE0
:10301000BBBB0D0A0A00000072756E74696D653ADB
:10302000312CBFAAC6F4BAAFCAFDD4CBD0D0BCC62F
:10303000CAB13B302CB9D8B1D5BAAFCAFDD4CBD0C8
:10304000D0BCC6CAB13B0D0A0A000000C7EBB0B441
:10305000D5D5B3CCD0F2B1E0D0B4B8F1CABDCAE492
:10306000C8EBBAAFCAFDC3FBBCB0B2CECAFDB2A2B8
:10307000D2D4BBD8B3B5BCFCBDE1CAF82E0D0A0052
:103080002D2D2D2D2D2D2D2D2D2D2D2D2D2D2D2D70
:103090002D2D2D2D2D2D2D2D2D2D414C49454E54B1
:1030A000454B2D2D2D2D2D2D2D2D2D2D2D2D2D2D1A
:1030B0002D2D2D2D2D2D2D2D2D2D2D200D0A0000EA
:1030C0002D2D2D2D2D2D2D2D2D2D2D2D2D2D2D2D30
:1030D0002D2D2D2D2D2D2D2D2DBAAFCAFDC7E5B5CA
:1030E000A52D2D2D2D2D2D2D2D2D2D2D2D2D2D2D98
:1030F0002D2D2D2D2D2D2D2D2D2D2D2D200D0A007D
:103100006800002025730D0A0000000059A0FDF79B
:103110005FF900200B901AE0664909689DF82C20A1
:1031200001EBC20101AB02AA486803A9FFF7AAFAA2
:10313000604800689DF82C1050F8312003A95EA06B
:10314000FDF746F99DF82C00401CC0B20B90594881
:10315000007D9DF82C108842DEDCAFF2DC30FDF7FC
:1031600037F983E0AFF2E830FDF732F90BAA03A993
:103170002046FFF701FA9DF82C00C8B9694603A85C
:10318000FFF7BBFC0B909DF82C0020B94FA00099D5
:10319000FDF71EF90EE09DF82C00042801D0022056
:1031A00063E54DA0FDF714F901204249C87501E01F
:1031B00002205AE547A0FDF70BF957E045A0FDF7BF
:1031C00007F90BAA03A92046FFF7D6F99DF82C00B2
:1031D000C8B9694603A8FFF790FC0B909DF82C0036
:1031E00020B942A00099FDF7F3F80EE09DF82C00FD
:1031F000042801D0022038E53FA0FDF7E9F80020BF
:103200002C49C87501E002202FE532A0FDF7E0F857
:103210002CE030A0FDF7DCF80BAA03A92046FFF74D
:10322000ABF99DF82C00C8B9694603A8FFF765FC07
:103230000B909DF82C0078B91E49009881F8EC009D
:10324000084690F8EC0018B130A0FDF7C1F807E08F
:1032500035A0FDF7BDF803E0022006E5022004E5F5
:103260001CA0FDF7B5F801E00120FEE400BF00203E
:10327000FBE400002D2D2D2D2D2D2D2D2D2D2D2D53
:103280002D2D2D2D2D2D2D2D2D2D2D2D2DBAAFCAC2
:10329000FD204944202D2D2D2D2D2D2D2D2D2D2D75
:1032A0002D2D2D2D2D2D2D2D2D2D2D2D2D2D2D2D4E
:1032B000200D0A00680000202573206964206973CE
:1032C0003A0D0A3058253038580D0A004845583A0A
:1032D000305825580D0A00003136BDF8D6C6B2CE9A
:1032E000CAFDCFD4CABE210D0A0000004445433AAE
:1032F000256C750D0A0000003130BDF8D6C6B2CE7F
:10330000CAFDCFD4CABE210D0A00000052756E203E
:1033100054696D652043616C63756C6174696F6E8F
:10332000204F4E0D0A00000052756E2054696D65E5
:103330002043616C63756C6174696F6E204F464603
:103340000D0A0000016070474FF04070E1EE100A76
:10335000704700000000000000000102030406079F
:103360000809000000000102030430313233343513
:1033700036373839414243444546403058003031B1
:1033800032333435363738396162636465664030CC
:1033900078000400000800000000000000020001A6
:1033A000000010003F0000006465630069640000D5
:1033B00072756E74696D650068656C700000000060
:1033C0006C6973740000000068657800766F69644A
:1033D000206C65645F736574287538207374612987
:1033E00000000000766F696420746573745F667511
:1033F0006E28766F6964282A6C6564736574292861
:103400007538292C7538207374612900766F6964CA
:103410002077726974655F61646472287533322045
:10342000616464722C7533322076616C290000006F
:1034300075333220726561645F616464722875332C
:103440003220616464722900766F69642064656C5F
:1034500061795F6D7328753136206E6D73290000B8
:10346000766F69642064656C61795F757328753364
:1034700032206E7573290000983400080000002087
:103480005C010000D4010008F83400085C01002051
:10349000E40700003002000811031124F432103256
:1034A0000113A4331B08B8041AC0041AAC041AC8C8
:1034B000041AA8041AB00413A921140830341B08F4
:1034C000450C1A0C0813D1201B0848081AE9081AE1
:1034D00060081AAF201AE41C1A4D081ACC082238CA
:1034E0001420B5291B08F51013A5221408292A4B0E
:0834F00008066701D900000085
:040000050800019955
:00000001FF
